{
  "_format": "hh-sol-artifact-1",
  "contractName": "StreamRollV1",
  "sourceName": "contracts/StreamRollV1.sol",
  "abi": [
    {
      "inputs": [],
      "stateMutability": "nonpayable",
      "type": "constructor"
    },
    {
      "anonymous": false,
      "inputs": [
        {
          "indexed": false,
          "internalType": "string",
          "name": "",
          "type": "string"
        },
        {
          "indexed": false,
          "internalType": "address",
          "name": "",
          "type": "address"
        },
        {
          "indexed": false,
          "internalType": "uint256",
          "name": "",
          "type": "uint256"
        }
      ],
      "name": "Log",
      "type": "event"
    },
    {
      "inputs": [
        {
          "internalType": "address",
          "name": "",
          "type": "address"
        }
      ],
      "name": "balances",
      "outputs": [
        {
          "internalType": "uint256",
          "name": "",
          "type": "uint256"
        }
      ],
      "stateMutability": "view",
      "type": "function"
    },
    {
      "inputs": [
        {
          "internalType": "uint256",
          "name": "_amount",
          "type": "uint256"
        }
      ],
      "name": "borrowFromCompound",
      "outputs": [],
      "stateMutability": "payable",
      "type": "function"
    },
    {
      "inputs": [
        {
          "internalType": "address",
          "name": "",
          "type": "address"
        }
      ],
      "name": "borrowedBalances",
      "outputs": [
        {
          "internalType": "uint256",
          "name": "",
          "type": "uint256"
        }
      ],
      "stateMutability": "view",
      "type": "function"
    },
    {
      "inputs": [
        {
          "internalType": "address",
          "name": "",
          "type": "address"
        }
      ],
      "name": "checkout",
      "outputs": [
        {
          "internalType": "uint256",
          "name": "",
          "type": "uint256"
        }
      ],
      "stateMutability": "view",
      "type": "function"
    },
    {
      "inputs": [
        {
          "internalType": "address",
          "name": "_requested",
          "type": "address"
        }
      ],
      "name": "getCheckout",
      "outputs": [
        {
          "internalType": "uint256",
          "name": "",
          "type": "uint256"
        }
      ],
      "stateMutability": "view",
      "type": "function"
    },
    {
      "inputs": [
        {
          "internalType": "uint256",
          "name": "_amount",
          "type": "uint256"
        }
      ],
      "name": "getEtherBack",
      "outputs": [],
      "stateMutability": "nonpayable",
      "type": "function"
    },
    {
      "inputs": [
        {
          "internalType": "address",
          "name": "_requested",
          "type": "address"
        }
      ],
      "name": "getSuppliedBalances",
      "outputs": [
        {
          "internalType": "uint256",
          "name": "",
          "type": "uint256"
        }
      ],
      "stateMutability": "view",
      "type": "function"
    },
    {
      "inputs": [
        {
          "internalType": "uint256",
          "name": "_repayAmount",
          "type": "uint256"
        }
      ],
      "name": "repayDebt",
      "outputs": [],
      "stateMutability": "nonpayable",
      "type": "function"
    },
    {
      "inputs": [],
      "name": "returnBorrowedBalances",
      "outputs": [
        {
          "internalType": "uint256",
          "name": "",
          "type": "uint256"
        }
      ],
      "stateMutability": "view",
      "type": "function"
    },
    {
      "inputs": [],
      "name": "supplyEthToCompound",
      "outputs": [],
      "stateMutability": "payable",
      "type": "function"
    },
    {
      "stateMutability": "payable",
      "type": "receive"
    }
  ],
  "bytecode": "0x608060405234801561001057600080fd5b50600160008190555073d6801a1dffcd0a410336ef88def4320d6df1883e600160006101000a81548173ffffffffffffffffffffffffffffffffffffffff021916908373ffffffffffffffffffffffffffffffffffffffff160217905550736d7f0754ffeb405d23c51ce938289d4835be3b14600260006101000a81548173ffffffffffffffffffffffffffffffffffffffff021916908373ffffffffffffffffffffffffffffffffffffffff160217905550732eaa9d77ae4d8f9cdd9faacd44016e746485bddb600360006101000a81548173ffffffffffffffffffffffffffffffffffffffff021916908373ffffffffffffffffffffffffffffffffffffffff160217905550611d98806101276000396000f3fe6080604052600436106100955760003560e01c8063728d472f11610059578063728d472f146101aa578063b7149004146101e7578063d2cbf04b14610224578063e7dd62c014610240578063f5837ada1461026b5761009c565b806327e235e3146100a157806333866e5b146100de5780633dae0d1a1461011b5780636b09de45146101585780636fb9ec5d146101815761009c565b3661009c57005b600080fd5b3480156100ad57600080fd5b506100c860048036038101906100c39190611263565b610275565b6040516100d591906117fe565b60405180910390f35b3480156100ea57600080fd5b5061010560048036038101906101009190611263565b61028d565b60405161011291906117fe565b60405180910390f35b34801561012757600080fd5b50610142600480360381019061013d9190611263565b6102d6565b60405161014f91906117fe565b60405180910390f35b34801561016457600080fd5b5061017f600480360381019061017a9190611306565b6102ee565b005b34801561018d57600080fd5b506101a860048036038101906101a39190611306565b610548565b005b3480156101b657600080fd5b506101d160048036038101906101cc9190611263565b61085f565b6040516101de91906117fe565b60405180910390f35b3480156101f357600080fd5b5061020e60048036038101906102099190611263565b6108a8565b60405161021b91906117fe565b60405180910390f35b61023e60048036038101906102399190611306565b6108c0565b005b34801561024c57600080fd5b50610255610dff565b60405161026291906117fe565b60405180910390f35b610273610e46565b005b60046020528060005260406000206000915090505481565b6000600460008373ffffffffffffffffffffffffffffffffffffffff1673ffffffffffffffffffffffffffffffffffffffff168152602001908152602001600020549050919050565b60056020528060005260406000206000915090505481565b60026000541415610334576040517f08c379a000000000000000000000000000000000000000000000000000000000815260040161032b9061179e565b60405180910390fd5b60026000819055506000735592ec0cfb4dbc12d3ab100b257153436a1f0fea90508073ffffffffffffffffffffffffffffffffffffffff1663095ea7b3736d7f0754ffeb405d23c51ce938289d4835be3b14846040518363ffffffff1660e01b81526004016103a49291906115df565b602060405180830381600087803b1580156103be57600080fd5b505af11580156103d2573d6000803e3d6000fd5b505050506040513d601f19601f820116820180604052508101906103f691906112d9565b5081600660003373ffffffffffffffffffffffffffffffffffffffff1673ffffffffffffffffffffffffffffffffffffffff168152602001908152602001600020600082825461044691906119a0565b925050819055506000600260009054906101000a900473ffffffffffffffffffffffffffffffffffffffff1673ffffffffffffffffffffffffffffffffffffffff16630e752702846040518263ffffffff1660e01b81526004016104aa91906117fe565b602060405180830381600087803b1580156104c457600080fd5b505af11580156104d8573d6000803e3d6000fd5b505050506040513d601f19601f820116820180604052508101906104fc9190611333565b1461053c576040517f08c379a0000000000000000000000000000000000000000000000000000000008152600401610533906117be565b60405180910390fd5b50600160008190555050565b6002600054141561058e576040517f08c379a00000000000000000000000000000000000000000000000000000000081526004016105859061179e565b60405180910390fd5b6002600081905550600060d29050818160ff16600660003373ffffffffffffffffffffffffffffffffffffffff1673ffffffffffffffffffffffffffffffffffffffff168152602001908152602001600020546105eb9190611915565b600460003373ffffffffffffffffffffffffffffffffffffffff1673ffffffffffffffffffffffffffffffffffffffff1681526020019081526020016000205461063591906119a0565b1015610676576040517f08c379a000000000000000000000000000000000000000000000000000000000815260040161066d9061166a565b60405180910390fd5b81600460003373ffffffffffffffffffffffffffffffffffffffff1673ffffffffffffffffffffffffffffffffffffffff16815260200190815260200160002060008282546106c591906119a0565b9250508190555081600560003373ffffffffffffffffffffffffffffffffffffffff1673ffffffffffffffffffffffffffffffffffffffff168152602001908152602001600020600082825461071b91906118bf565b925050819055506000600160009054906101000a900473ffffffffffffffffffffffffffffffffffffffff1673ffffffffffffffffffffffffffffffffffffffff1663852a12e3846040518263ffffffff1660e01b815260040161077f91906117fe565b602060405180830381600087803b15801561079957600080fd5b505af11580156107ad573d6000803e3d6000fd5b505050506040513d601f19601f820116820180604052508101906107d19190611333565b14610811576040517f08c379a0000000000000000000000000000000000000000000000000000000008152600401610808906116aa565b60405180910390fd5b61081a82610fb0565b7f31f37e75fc861191c989b3f8011596a4c0dd2bd2b255a7072a7d94fdb895a724338360405161084b929190611742565b60405180910390a150600160008190555050565b6000600560008373ffffffffffffffffffffffffffffffffffffffff1673ffffffffffffffffffffffffffffffffffffffff168152602001908152602001600020549050919050565b60066020528060005260406000206000915090505481565b60026000541415610906576040517f08c379a00000000000000000000000000000000000000000000000000000000081526004016108fd9061179e565b60405180910390fd5b6002600081905550600060d29050818160ff16600460003373ffffffffffffffffffffffffffffffffffffffff1673ffffffffffffffffffffffffffffffffffffffff168152602001908152602001600020546109639190611946565b10156109a4576040517f08c379a000000000000000000000000000000000000000000000000000000000815260040161099b9061162a565b60405180910390fd5b6000600660003373ffffffffffffffffffffffffffffffffffffffff1673ffffffffffffffffffffffffffffffffffffffff16815260200190815260200160002054600460003373ffffffffffffffffffffffffffffffffffffffff1673ffffffffffffffffffffffffffffffffffffffff16815260200190815260200160002054610a3091906119a0565b9050828260ff1682610a429190611946565b1015610a83576040517f08c379a0000000000000000000000000000000000000000000000000000000008152600401610a7a9061162a565b60405180910390fd5b6000600267ffffffffffffffff811115610aa057610a9f611ada565b5b604051908082528060200260200182016040528015610ace5781602001602082028036833780820191505090505b50905073d6801a1dffcd0a410336ef88def4320d6df1883e81600081518110610afa57610af9611aab565b5b602002602001019073ffffffffffffffffffffffffffffffffffffffff16908173ffffffffffffffffffffffffffffffffffffffff1681525050736d7f0754ffeb405d23c51ce938289d4835be3b1481600181518110610b5d57610b5c611aab565b5b602002602001019073ffffffffffffffffffffffffffffffffffffffff16908173ffffffffffffffffffffffffffffffffffffffff168152505083600660003373ffffffffffffffffffffffffffffffffffffffff1673ffffffffffffffffffffffffffffffffffffffff1681526020019081526020016000206000828254610be691906118bf565b925050819055506000600360009054906101000a900473ffffffffffffffffffffffffffffffffffffffff1673ffffffffffffffffffffffffffffffffffffffff1663c2998238836040518263ffffffff1660e01b8152600401610c4a9190611608565b600060405180830381600087803b158015610c6457600080fd5b505af1158015610c78573d6000803e3d6000fd5b505050506040513d6000823e3d601f19601f82011682018060405250810190610ca19190611290565b9050600081600081518110610cb957610cb8611aab565b5b602002602001015114610d01576040517f08c379a0000000000000000000000000000000000000000000000000000000008152600401610cf89061168a565b60405180910390fd5b6000600260009054906101000a900473ffffffffffffffffffffffffffffffffffffffff1673ffffffffffffffffffffffffffffffffffffffff1663c5ebeaec876040518263ffffffff1660e01b8152600401610d5e91906117fe565b602060405180830381600087803b158015610d7857600080fd5b505af1158015610d8c573d6000803e3d6000fd5b505050506040513d601f19601f82011682018060405250810190610db09190611333565b14610df0576040517f08c379a0000000000000000000000000000000000000000000000000000000008152600401610de79061177e565b60405180910390fd5b50505050600160008190555050565b6000600660003373ffffffffffffffffffffffffffffffffffffffff1673ffffffffffffffffffffffffffffffffffffffff16815260200190815260200160002054905090565b60026000541415610e8c576040517f08c379a0000000000000000000000000000000000000000000000000000000008152600401610e839061179e565b60405180910390fd5b600260008190555034600460003373ffffffffffffffffffffffffffffffffffffffff1673ffffffffffffffffffffffffffffffffffffffff1681526020019081526020016000206000828254610ee391906118bf565b92505081905550600160009054906101000a900473ffffffffffffffffffffffffffffffffffffffff1673ffffffffffffffffffffffffffffffffffffffff16631249c58b346040518263ffffffff1660e01b81526004016000604051808303818588803b158015610f5457600080fd5b505af1158015610f68573d6000803e3d6000fd5b50505050507f31f37e75fc861191c989b3f8011596a4c0dd2bd2b255a7072a7d94fdb895a7243334604051610f9e9291906116ca565b60405180910390a16001600081905550565b80600560003373ffffffffffffffffffffffffffffffffffffffff1673ffffffffffffffffffffffffffffffffffffffff168152602001908152602001600020541015611032576040517f08c379a00000000000000000000000000000000000000000000000000000000081526004016110299061164a565b60405180910390fd5b80600560003373ffffffffffffffffffffffffffffffffffffffff1673ffffffffffffffffffffffffffffffffffffffff168152602001908152602001600020600082825461108191906119a0565b9250508190555060003373ffffffffffffffffffffffffffffffffffffffff16826040516110ae906115ca565b60006040518083038185875af1925050503d80600081146110eb576040519150601f19603f3d011682016040523d82523d6000602084013e6110f0565b606091505b5050905080611134576040517f08c379a000000000000000000000000000000000000000000000000000000000815260040161112b906117de565b60405180910390fd5b7f31f37e75fc861191c989b3f8011596a4c0dd2bd2b255a7072a7d94fdb895a7243383604051611165929190611706565b60405180910390a15050565b600061118461117f8461183e565b611819565b905080838252602082019050828560208602820111156111a7576111a6611b0e565b5b60005b858110156111d757816111bd888261124e565b8452602084019350602083019250506001810190506111aa565b5050509392505050565b6000813590506111f081611d1d565b92915050565b600082601f83011261120b5761120a611b09565b5b815161121b848260208601611171565b91505092915050565b60008151905061123381611d34565b92915050565b60008135905061124881611d4b565b92915050565b60008151905061125d81611d4b565b92915050565b60006020828403121561127957611278611b18565b5b6000611287848285016111e1565b91505092915050565b6000602082840312156112a6576112a5611b18565b5b600082015167ffffffffffffffff8111156112c4576112c3611b13565b5b6112d0848285016111f6565b91505092915050565b6000602082840312156112ef576112ee611b18565b5b60006112fd84828501611224565b91505092915050565b60006020828403121561131c5761131b611b18565b5b600061132a84828501611239565b91505092915050565b60006020828403121561134957611348611b18565b5b60006113578482850161124e565b91505092915050565b600061136c8383611378565b60208301905092915050565b611381816119d4565b82525050565b611390816119d4565b82525050565b60006113a18261187a565b6113ab8185611892565b93506113b68361186a565b8060005b838110156113e75781516113ce8882611360565b97506113d983611885565b9250506001810190506113ba565b5085935050505092915050565b60006114016018836118ae565b915061140c82611b2e565b602082019050919050565b60006114246019836118ae565b915061142f82611b57565b602082019050919050565b6000611447601c836118ae565b915061145282611b80565b602082019050919050565b600061146a601f836118ae565b915061147582611ba9565b602082019050919050565b600061148d6005836118ae565b915061149882611bd2565b602082019050919050565b60006114b0600b836118ae565b91506114bb82611bfb565b602082019050919050565b60006114d36013836118ae565b91506114de82611c24565b602082019050919050565b60006114f66016836118ae565b915061150182611c4d565b602082019050919050565b60006115196012836118ae565b915061152482611c76565b602082019050919050565b600061153c6000836118a3565b915061154782611c9f565b600082019050919050565b600061155f601f836118ae565b915061156a82611ca2565b602082019050919050565b60006115826016836118ae565b915061158d82611ccb565b602082019050919050565b60006115a56012836118ae565b91506115b082611cf4565b602082019050919050565b6115c481611a12565b82525050565b60006115d58261152f565b9150819050919050565b60006040820190506115f46000830185611387565b61160160208301846115bb565b9392505050565b600060208201905081810360008301526116228184611396565b905092915050565b60006020820190508181036000830152611643816113f4565b9050919050565b6000602082019050818103600083015261166381611417565b9050919050565b600060208201905081810360008301526116838161143a565b9050919050565b600060208201905081810360008301526116a38161145d565b9050919050565b600060208201905081810360008301526116c381611480565b9050919050565b600060608201905081810360008301526116e3816114a3565b90506116f26020830185611387565b6116ff60408301846115bb565b9392505050565b6000606082019050818103600083015261171f816114c6565b905061172e6020830185611387565b61173b60408301846115bb565b9392505050565b6000606082019050818103600083015261175b816114e9565b905061176a6020830185611387565b61177760408301846115bb565b9392505050565b600060208201905081810360008301526117978161150c565b9050919050565b600060208201905081810360008301526117b781611552565b9050919050565b600060208201905081810360008301526117d781611575565b9050919050565b600060208201905081810360008301526117f781611598565b9050919050565b600060208201905061181360008301846115bb565b92915050565b6000611823611834565b905061182f8282611a1c565b919050565b6000604051905090565b600067ffffffffffffffff82111561185957611858611ada565b5b602082029050602081019050919050565b6000819050602082019050919050565b600081519050919050565b6000602082019050919050565b600082825260208201905092915050565b600081905092915050565b600082825260208201905092915050565b60006118ca82611a12565b91506118d583611a12565b9250827fffffffffffffffffffffffffffffffffffffffffffffffffffffffffffffffff0382111561190a57611909611a4d565b5b828201905092915050565b600061192082611a12565b915061192b83611a12565b92508261193b5761193a611a7c565b5b828204905092915050565b600061195182611a12565b915061195c83611a12565b9250817fffffffffffffffffffffffffffffffffffffffffffffffffffffffffffffffff048311821515161561199557611994611a4d565b5b828202905092915050565b60006119ab82611a12565b91506119b683611a12565b9250828210156119c9576119c8611a4d565b5b828203905092915050565b60006119df826119f2565b9050919050565b60008115159050919050565b600073ffffffffffffffffffffffffffffffffffffffff82169050919050565b6000819050919050565b611a2582611b1d565b810181811067ffffffffffffffff82111715611a4457611a43611ada565b5b80604052505050565b7f4e487b7100000000000000000000000000000000000000000000000000000000600052601160045260246000fd5b7f4e487b7100000000000000000000000000000000000000000000000000000000600052601260045260246000fd5b7f4e487b7100000000000000000000000000000000000000000000000000000000600052603260045260246000fd5b7f4e487b7100000000000000000000000000000000000000000000000000000000600052604160045260246000fd5b600080fd5b600080fd5b600080fd5b600080fd5b6000601f19601f8301169050919050565b7f596f75206e656564206d6f726520636f6c6c61746572616c0000000000000000600082015250565b7f4e6f7420656e6f75676820636865636b6f75742066756e647300000000000000600082015250565b7f4e6f7420656e6f7567682066756e647320746f20726574726965766500000000600082015250565b7f436f6d7074726f6c6c65722e656e7465724d61726b657473206661696c656400600082015250565b7f4552524f52000000000000000000000000000000000000000000000000000000600082015250565b7f4e65772062616c616e6365000000000000000000000000000000000000000000600082015250565b7f5472616e736665722073756363657366756c6c00000000000000000000000000600082015250565b7f4e657720434845434b4f55542052455155455354454400000000000000000000600082015250565b7f426f72726f77204e6f7420576f726b696e670000000000000000000000000000600082015250565b50565b7f5265656e7472616e637947756172643a207265656e7472616e742063616c6c00600082015250565b7f4572726f7220696e207265706179426f72726f77282900000000000000000000600082015250565b7f5472616e73616374696f6e204661696c65640000000000000000000000000000600082015250565b611d26816119d4565b8114611d3157600080fd5b50565b611d3d816119e6565b8114611d4857600080fd5b50565b611d5481611a12565b8114611d5f57600080fd5b5056fea264697066735822122094b5983523b562b5bdaeecfd4d028213399115d1dfb74d4c5b02d0350abff0df64736f6c63430008070033",
  "linkReferences": {},
  "deployedLinkReferences": {}
}