{
  "_format": "hh-sol-artifact-1",
  "contractName": "StreamRollV1",
  "sourceName": "contracts/StreamRollV1.sol",
  "abi": [
    {
      "inputs": [],
      "stateMutability": "nonpayable",
      "type": "constructor"
    },
    {
      "anonymous": false,
      "inputs": [
        {
          "indexed": false,
          "internalType": "string",
          "name": "_message",
          "type": "string"
        },
        {
          "indexed": false,
          "internalType": "address",
          "name": "_owner",
          "type": "address"
        }
      ],
      "name": "Creation",
      "type": "event"
    },
    {
      "anonymous": false,
      "inputs": [
        {
          "indexed": false,
          "internalType": "address",
          "name": "_sender",
          "type": "address"
        },
        {
          "indexed": false,
          "internalType": "address",
          "name": "_to",
          "type": "address"
        }
      ],
      "name": "FlowDeleted",
      "type": "event"
    },
    {
      "anonymous": false,
      "inputs": [
        {
          "indexed": false,
          "internalType": "address",
          "name": "_sender",
          "type": "address"
        },
        {
          "indexed": false,
          "internalType": "address",
          "name": "_to",
          "type": "address"
        },
        {
          "indexed": false,
          "internalType": "uint256",
          "name": "_amount",
          "type": "uint256"
        },
        {
          "indexed": false,
          "internalType": "uint256",
          "name": "_days",
          "type": "uint256"
        }
      ],
      "name": "FlowUpdated",
      "type": "event"
    },
    {
      "anonymous": false,
      "inputs": [
        {
          "indexed": false,
          "internalType": "string",
          "name": "",
          "type": "string"
        },
        {
          "indexed": false,
          "internalType": "address",
          "name": "",
          "type": "address"
        },
        {
          "indexed": false,
          "internalType": "uint256",
          "name": "",
          "type": "uint256"
        }
      ],
      "name": "Log",
      "type": "event"
    },
    {
      "anonymous": false,
      "inputs": [
        {
          "indexed": false,
          "internalType": "address",
          "name": "_sender",
          "type": "address"
        },
        {
          "indexed": false,
          "internalType": "address",
          "name": "_to",
          "type": "address"
        },
        {
          "indexed": false,
          "internalType": "uint256",
          "name": "_amount",
          "type": "uint256"
        },
        {
          "indexed": false,
          "internalType": "uint256",
          "name": "_days",
          "type": "uint256"
        }
      ],
      "name": "NewFlow",
      "type": "event"
    },
    {
      "inputs": [
        {
          "internalType": "address",
          "name": "_to",
          "type": "address"
        },
        {
          "internalType": "uint256",
          "name": "_amount",
          "type": "uint256"
        },
        {
          "internalType": "uint256",
          "name": "_days",
          "type": "uint256"
        }
      ],
      "name": "_createFlow",
      "outputs": [],
      "stateMutability": "nonpayable",
      "type": "function"
    },
    {
      "inputs": [
        {
          "internalType": "address",
          "name": "_to",
          "type": "address"
        }
      ],
      "name": "_deleteFlow",
      "outputs": [],
      "stateMutability": "nonpayable",
      "type": "function"
    },
    {
      "inputs": [
        {
          "internalType": "address",
          "name": "_to",
          "type": "address"
        },
        {
          "internalType": "uint256",
          "name": "_amount",
          "type": "uint256"
        },
        {
          "internalType": "uint256",
          "name": "_days",
          "type": "uint256"
        }
      ],
      "name": "_updateFlow",
      "outputs": [],
      "stateMutability": "nonpayable",
      "type": "function"
    },
    {
      "inputs": [
        {
          "internalType": "uint256",
          "name": "_amount",
          "type": "uint256"
        }
      ],
      "name": "borrowFromCompound",
      "outputs": [],
      "stateMutability": "payable",
      "type": "function"
    },
    {
      "inputs": [
        {
          "internalType": "uint256",
          "name": "_amount",
          "type": "uint256"
        }
      ],
      "name": "getEtherBack",
      "outputs": [],
      "stateMutability": "nonpayable",
      "type": "function"
    },
    {
      "inputs": [
        {
          "internalType": "address",
          "name": "_owner",
          "type": "address"
        }
      ],
      "name": "initialize",
      "outputs": [],
      "stateMutability": "nonpayable",
      "type": "function"
    },
    {
      "inputs": [
        {
          "internalType": "uint256",
          "name": "_repayAmount",
          "type": "uint256"
        }
      ],
      "name": "repayDebt",
      "outputs": [],
      "stateMutability": "nonpayable",
      "type": "function"
    },
    {
      "inputs": [],
      "name": "supplyEthToCompound",
      "outputs": [],
      "stateMutability": "payable",
      "type": "function"
    },
    {
      "inputs": [
        {
          "internalType": "uint256",
          "name": "_amount",
          "type": "uint256"
        }
      ],
      "name": "supplyEthToCompoundFromContract",
      "outputs": [],
      "stateMutability": "nonpayable",
      "type": "function"
    },
    {
      "stateMutability": "payable",
      "type": "receive"
    }
  ],
  "bytecode": "0x608060405234801561001057600080fd5b50600160008190555060018060026101000a81548160ff021916908315150217905550613190806100426000396000f3fe60806040526004361061008a5760003560e01c80636fb9ec5d116100595780636fb9ec5d1461013a5780637f50214814610163578063c4d66de81461018c578063d2cbf04b146101b5578063f5837ada146101d157610091565b8063186d2f33146100965780633d015fa3146100bf5780634f6d183b146100e85780636b09de451461011157610091565b3661009157005b600080fd5b3480156100a257600080fd5b506100bd60048036038101906100b89190612053565b6101db565b005b3480156100cb57600080fd5b506100e660048036038101906100e19190612165565b61053e565b005b3480156100f457600080fd5b5061010f600480360381019061010a9190612053565b610726565b005b34801561011d57600080fd5b5061013860048036038101906101339190612165565b610a89565b005b34801561014657600080fd5b50610161600480360381019061015c9190612165565b610d56565b005b34801561016f57600080fd5b5061018a60048036038101906101859190612026565b610f70565b005b34801561019857600080fd5b506101b360048036038101906101ae9190612026565b611203565b005b6101cf60048036038101906101ca9190612165565b61174a565b005b6101d9611b85565b005b3373ffffffffffffffffffffffffffffffffffffffff16600160039054906101000a900473ffffffffffffffffffffffffffffffffffffffff1673ffffffffffffffffffffffffffffffffffffffff161461026b576040517f08c379a000000000000000000000000000000000000000000000000000000000815260040161026290612903565b60405180910390fd5b6000620151809050600082826102819190612b2c565b9050600081670de0b6b3a76400008661029a9190612b2c565b6102a49190612afb565b905073745861aed1eee363b4aaa5f1994be40b1e05ff9073ffffffffffffffffffffffffffffffffffffffff166345977d03670de0b6b3a7640000876102ea9190612b2c565b6040518263ffffffff1660e01b815260040161030691906129ed565b600060405180830381600087803b15801561032057600080fd5b505af1158015610334573d6000803e3d6000fd5b50505050600560009054906101000a900473ffffffffffffffffffffffffffffffffffffffff1673ffffffffffffffffffffffffffffffffffffffff166339255d5b600660009054906101000a900473ffffffffffffffffffffffffffffffffffffffff166362fc305e60e01b600760009054906101000a900473ffffffffffffffffffffffffffffffffffffffff168a86600067ffffffffffffffff8111156103e1576103e0612d19565b5b6040519080825280601f01601f1916602001820160405280156104135781602001600182028036833780820191505090505b5060405160240161042794939291906126e7565b604051602081830303815290604052907bffffffffffffffffffffffffffffffffffffffffffffffffffffffff19166020820180517bffffffffffffffffffffffffffffffffffffffffffffffffffffffff83818316178352505050506040518363ffffffff1660e01b81526004016104a1929190612658565b600060405180830381600087803b1580156104bb57600080fd5b505af11580156104cf573d6000803e3d6000fd5b505050506040513d6000823e3d601f19601f820116820180604052508101906104f8919061211c565b507f2419b0aebbac494115eb1fd0400a5046ebdc9c4de442dd294dc7f6482b4e732f3387878760405161052e949392919061259f565b60405180910390a1505050505050565b60026000541415610584576040517f08c379a000000000000000000000000000000000000000000000000000000000815260040161057b9061295f565b60405180910390fd5b60026000819055503373ffffffffffffffffffffffffffffffffffffffff16600160039054906101000a900473ffffffffffffffffffffffffffffffffffffffff1673ffffffffffffffffffffffffffffffffffffffff161461061c576040517f08c379a000000000000000000000000000000000000000000000000000000000815260040161061390612903565b60405180910390fd5b4781111561065f576040517f08c379a0000000000000000000000000000000000000000000000000000000008152600401610656906127cf565b60405180910390fd5b600260009054906101000a900473ffffffffffffffffffffffffffffffffffffffff1673ffffffffffffffffffffffffffffffffffffffff16631249c58b826040518263ffffffff1660e01b81526004016000604051808303818588803b1580156106c957600080fd5b505af11580156106dd573d6000803e3d6000fd5b50505050507f31f37e75fc861191c989b3f8011596a4c0dd2bd2b255a7072a7d94fdb895a7243382604051610713929190612773565b60405180910390a1600160008190555050565b3373ffffffffffffffffffffffffffffffffffffffff16600160039054906101000a900473ffffffffffffffffffffffffffffffffffffffff1673ffffffffffffffffffffffffffffffffffffffff16146107b6576040517f08c379a00000000000000000000000000000000000000000000000000000000081526004016107ad90612903565b60405180910390fd5b6000620151809050600082826107cc9190612b2c565b9050600081670de0b6b3a7640000866107e59190612b2c565b6107ef9190612afb565b905073745861aed1eee363b4aaa5f1994be40b1e05ff9073ffffffffffffffffffffffffffffffffffffffff166345977d03670de0b6b3a7640000876108359190612b2c565b6040518263ffffffff1660e01b815260040161085191906129ed565b600060405180830381600087803b15801561086b57600080fd5b505af115801561087f573d6000803e3d6000fd5b50505050600560009054906101000a900473ffffffffffffffffffffffffffffffffffffffff1673ffffffffffffffffffffffffffffffffffffffff166339255d5b600660009054906101000a900473ffffffffffffffffffffffffffffffffffffffff166350209a6260e01b600760009054906101000a900473ffffffffffffffffffffffffffffffffffffffff168a86600067ffffffffffffffff81111561092c5761092b612d19565b5b6040519080825280601f01601f19166020018201604052801561095e5781602001600182028036833780820191505090505b5060405160240161097294939291906126e7565b604051602081830303815290604052907bffffffffffffffffffffffffffffffffffffffffffffffffffffffff19166020820180517bffffffffffffffffffffffffffffffffffffffffffffffffffffffff83818316178352505050506040518363ffffffff1660e01b81526004016109ec929190612658565b600060405180830381600087803b158015610a0657600080fd5b505af1158015610a1a573d6000803e3d6000fd5b505050506040513d6000823e3d601f19601f82011682018060405250810190610a43919061211c565b507faf70128f0e8ed885e61d776edb07bcf8a6da2c40cbd1ca3f7e93c743f9bee82133878787604051610a79949392919061259f565b60405180910390a1505050505050565b60026000541415610acf576040517f08c379a0000000000000000000000000000000000000000000000000000000008152600401610ac69061295f565b60405180910390fd5b60026000819055503373ffffffffffffffffffffffffffffffffffffffff16600160039054906101000a900473ffffffffffffffffffffffffffffffffffffffff1673ffffffffffffffffffffffffffffffffffffffff1614610b67576040517f08c379a0000000000000000000000000000000000000000000000000000000008152600401610b5e90612903565b60405180910390fd5b6000734f96fe3b7a6cf9725f59d353f723c1bdb64ca6aa90508073ffffffffffffffffffffffffffffffffffffffff1663095ea7b373f0d0eb522cfa50b716b3b1604c4f0fa6f04376ad846040518363ffffffff1660e01b8152600401610bcf92919061260d565b602060405180830381600087803b158015610be957600080fd5b505af1158015610bfd573d6000803e3d6000fd5b505050506040513d601f19601f82011682018060405250810190610c2191906120ef565b506000600360009054906101000a900473ffffffffffffffffffffffffffffffffffffffff1673ffffffffffffffffffffffffffffffffffffffff16630e752702846040518263ffffffff1660e01b8152600401610c7f91906129ed565b602060405180830381600087803b158015610c9957600080fd5b505af1158015610cad573d6000803e3d6000fd5b505050506040513d601f19601f82011682018060405250810190610cd19190612192565b14610d11576040517f08c379a0000000000000000000000000000000000000000000000000000000008152600401610d089061297f565b60405180910390fd5b7f31f37e75fc861191c989b3f8011596a4c0dd2bd2b255a7072a7d94fdb895a7243383604051610d4292919061282b565b60405180910390a150600160008190555050565b60026000541415610d9c576040517f08c379a0000000000000000000000000000000000000000000000000000000008152600401610d939061295f565b60405180910390fd5b60026000819055503373ffffffffffffffffffffffffffffffffffffffff16600160039054906101000a900473ffffffffffffffffffffffffffffffffffffffff1673ffffffffffffffffffffffffffffffffffffffff1614610e34576040517f08c379a0000000000000000000000000000000000000000000000000000000008152600401610e2b90612903565b60405180910390fd5b6000600260009054906101000a900473ffffffffffffffffffffffffffffffffffffffff1673ffffffffffffffffffffffffffffffffffffffff1663852a12e3836040518263ffffffff1660e01b8152600401610e9191906129ed565b602060405180830381600087803b158015610eab57600080fd5b505af1158015610ebf573d6000803e3d6000fd5b505050506040513d601f19601f82011682018060405250810190610ee39190612192565b14610f23576040517f08c379a0000000000000000000000000000000000000000000000000000000008152600401610f1a906128c3565b60405180910390fd5b610f2c81611d29565b7f31f37e75fc861191c989b3f8011596a4c0dd2bd2b255a7072a7d94fdb895a7243382604051610f5d929190612923565b60405180910390a1600160008190555050565b3373ffffffffffffffffffffffffffffffffffffffff16600160039054906101000a900473ffffffffffffffffffffffffffffffffffffffff1673ffffffffffffffffffffffffffffffffffffffff1614611000576040517f08c379a0000000000000000000000000000000000000000000000000000000008152600401610ff790612903565b60405180910390fd5b6000309050600560009054906101000a900473ffffffffffffffffffffffffffffffffffffffff1673ffffffffffffffffffffffffffffffffffffffff166339255d5b600660009054906101000a900473ffffffffffffffffffffffffffffffffffffffff1663b4b333c660e01b600760009054906101000a900473ffffffffffffffffffffffffffffffffffffffff168587600067ffffffffffffffff8111156110ae576110ad612d19565b5b6040519080825280601f01601f1916602001820160405280156110e05781602001600182028036833780820191505090505b506040516024016110f4949392919061269b565b604051602081830303815290604052907bffffffffffffffffffffffffffffffffffffffffffffffffffffffff19166020820180517bffffffffffffffffffffffffffffffffffffffffffffffffffffffff83818316178352505050506040518363ffffffff1660e01b815260040161116e929190612658565b600060405180830381600087803b15801561118857600080fd5b505af115801561119c573d6000803e3d6000fd5b505050506040513d6000823e3d601f19601f820116820180604052508101906111c5919061211c565b507f64d675fb197e6c07a8c9890564138535ad877ce2a89cce0d2786490b52ce280133836040516111f7929190612576565b60405180910390a15050565b60018054906101000a900460ff16806112295750600160009054906101000a900460ff16155b611268576040517f08c379a000000000000000000000000000000000000000000000000000000000815260040161125f906128a3565b60405180910390fd5b600060018054906101000a900460ff1615905080156112b65760018060016101000a81548160ff02191690831515021790555060018060006101000a81548160ff0219169083151502179055505b60001515600160029054906101000a900460ff1615151461130c576040517f08c379a000000000000000000000000000000000000000000000000000000000815260040161130390612733565b60405180910390fd5b600073ffffffffffffffffffffffffffffffffffffffff16600160039054906101000a900473ffffffffffffffffffffffffffffffffffffffff1673ffffffffffffffffffffffffffffffffffffffff161461139d576040517f08c379a000000000000000000000000000000000000000000000000000000000815260040161139490612753565b60405180910390fd5b81600160036101000a81548173ffffffffffffffffffffffffffffffffffffffff021916908373ffffffffffffffffffffffffffffffffffffffff16021790555060018060026101000a81548160ff02191690831515021790555073d6801a1dffcd0a410336ef88def4320d6df1883e600260006101000a81548173ffffffffffffffffffffffffffffffffffffffff021916908373ffffffffffffffffffffffffffffffffffffffff160217905550736d7f0754ffeb405d23c51ce938289d4835be3b14600360006101000a81548173ffffffffffffffffffffffffffffffffffffffff021916908373ffffffffffffffffffffffffffffffffffffffff160217905550732eaa9d77ae4d8f9cdd9faacd44016e746485bddb600460006101000a81548173ffffffffffffffffffffffffffffffffffffffff021916908373ffffffffffffffffffffffffffffffffffffffff16021790555073ed5b5b32110c3ded02a07c8b8e97513fafb883b6600560006101000a81548173ffffffffffffffffffffffffffffffffffffffff021916908373ffffffffffffffffffffffffffffffffffffffff16021790555073f4c5310e51f6079f601a5fb7120bc72a70b96e2a600660006101000a81548173ffffffffffffffffffffffffffffffffffffffff021916908373ffffffffffffffffffffffffffffffffffffffff16021790555073745861aed1eee363b4aaa5f1994be40b1e05ff90600760006101000a81548173ffffffffffffffffffffffffffffffffffffffff021916908373ffffffffffffffffffffffffffffffffffffffff1602179055507315f0ca26781c3852f8166ed2ebce5d18265cceb773ffffffffffffffffffffffffffffffffffffffff1663095ea7b373745861aed1eee363b4aaa5f1994be40b1e05ff907fffffffffffffffffffffffffffffffffffffffffffffffffffffffffffffffff6040518363ffffffff1660e01b81526004016116799291906125e4565b602060405180830381600087803b15801561169357600080fd5b505af11580156116a7573d6000803e3d6000fd5b505050506040513d601f19601f820116820180604052508101906116cb91906120ef565b507fba58a248a34b80c5742c0af3972b0b5f3c99ddd89f684df8802752c534c4de40600160039054906101000a900473ffffffffffffffffffffffffffffffffffffffff1660405161171d91906129bf565b60405180910390a180156117465760006001806101000a81548160ff0219169083151502179055505b5050565b60026000541415611790576040517f08c379a00000000000000000000000000000000000000000000000000000000081526004016117879061295f565b60405180910390fd5b60026000819055503373ffffffffffffffffffffffffffffffffffffffff16600160039054906101000a900473ffffffffffffffffffffffffffffffffffffffff1673ffffffffffffffffffffffffffffffffffffffff1614611828576040517f08c379a000000000000000000000000000000000000000000000000000000000815260040161181f90612903565b60405180910390fd5b6000600267ffffffffffffffff81111561184557611844612d19565b5b6040519080825280602002602001820160405280156118735781602001602082028036833780820191505090505b50905073d6801a1dffcd0a410336ef88def4320d6df1883e8160008151811061189f5761189e612cea565b5b602002602001019073ffffffffffffffffffffffffffffffffffffffff16908173ffffffffffffffffffffffffffffffffffffffff1681525050736d7f0754ffeb405d23c51ce938289d4835be3b148160018151811061190257611901612cea565b5b602002602001019073ffffffffffffffffffffffffffffffffffffffff16908173ffffffffffffffffffffffffffffffffffffffff16815250506000600460009054906101000a900473ffffffffffffffffffffffffffffffffffffffff1673ffffffffffffffffffffffffffffffffffffffff1663c2998238836040518263ffffffff1660e01b81526004016119999190612636565b600060405180830381600087803b1580156119b357600080fd5b505af11580156119c7573d6000803e3d6000fd5b505050506040513d6000823e3d601f19601f820116820180604052508101906119f091906120a6565b9050600081600081518110611a0857611a07612cea565b5b602002602001015114611a50576040517f08c379a0000000000000000000000000000000000000000000000000000000008152600401611a47906127af565b60405180910390fd5b6000600360009054906101000a900473ffffffffffffffffffffffffffffffffffffffff1673ffffffffffffffffffffffffffffffffffffffff1663c5ebeaec856040518263ffffffff1660e01b8152600401611aad91906129ed565b602060405180830381600087803b158015611ac757600080fd5b505af1158015611adb573d6000803e3d6000fd5b505050506040513d601f19601f82011682018060405250810190611aff9190612192565b14611b3f576040517f08c379a0000000000000000000000000000000000000000000000000000000008152600401611b36906128e3565b60405180910390fd5b7f31f37e75fc861191c989b3f8011596a4c0dd2bd2b255a7072a7d94fdb895a7243384604051611b709291906127ef565b60405180910390a15050600160008190555050565b60026000541415611bcb576040517f08c379a0000000000000000000000000000000000000000000000000000000008152600401611bc29061295f565b60405180910390fd5b60026000819055503373ffffffffffffffffffffffffffffffffffffffff16600160039054906101000a900473ffffffffffffffffffffffffffffffffffffffff1673ffffffffffffffffffffffffffffffffffffffff1614611c63576040517f08c379a0000000000000000000000000000000000000000000000000000000008152600401611c5a90612903565b60405180910390fd5b600260009054906101000a900473ffffffffffffffffffffffffffffffffffffffff1673ffffffffffffffffffffffffffffffffffffffff16631249c58b346040518263ffffffff1660e01b81526004016000604051808303818588803b158015611ccd57600080fd5b505af1158015611ce1573d6000803e3d6000fd5b50505050507f31f37e75fc861191c989b3f8011596a4c0dd2bd2b255a7072a7d94fdb895a7243334604051611d17929190612773565b60405180910390a16001600081905550565b3373ffffffffffffffffffffffffffffffffffffffff16600160039054906101000a900473ffffffffffffffffffffffffffffffffffffffff1673ffffffffffffffffffffffffffffffffffffffff1614611db9576040517f08c379a0000000000000000000000000000000000000000000000000000000008152600401611db090612903565b60405180910390fd5b6000600160039054906101000a900473ffffffffffffffffffffffffffffffffffffffff1673ffffffffffffffffffffffffffffffffffffffff1682604051611e0190612561565b60006040518083038185875af1925050503d8060008114611e3e576040519150601f19603f3d011682016040523d82523d6000602084013e611e43565b606091505b5050905080611e87576040517f08c379a0000000000000000000000000000000000000000000000000000000008152600401611e7e9061299f565b60405180910390fd5b7f31f37e75fc861191c989b3f8011596a4c0dd2bd2b255a7072a7d94fdb895a7243383604051611eb8929190612867565b60405180910390a15050565b6000611ed7611ed284612a2d565b612a08565b90508083825260208201905082856020860282011115611efa57611ef9612d4d565b5b60005b85811015611f2a5781611f108882612011565b845260208401935060208301925050600181019050611efd565b5050509392505050565b6000611f47611f4284612a59565b612a08565b905082815260208101848484011115611f6357611f62612d52565b5b611f6e848285612c28565b509392505050565b600081359050611f8581613115565b92915050565b600082601f830112611fa057611f9f612d48565b5b8151611fb0848260208601611ec4565b91505092915050565b600081519050611fc88161312c565b92915050565b600082601f830112611fe357611fe2612d48565b5b8151611ff3848260208601611f34565b91505092915050565b60008135905061200b81613143565b92915050565b60008151905061202081613143565b92915050565b60006020828403121561203c5761203b612d5c565b5b600061204a84828501611f76565b91505092915050565b60008060006060848603121561206c5761206b612d5c565b5b600061207a86828701611f76565b935050602061208b86828701611ffc565b925050604061209c86828701611ffc565b9150509250925092565b6000602082840312156120bc576120bb612d5c565b5b600082015167ffffffffffffffff8111156120da576120d9612d57565b5b6120e684828501611f8b565b91505092915050565b60006020828403121561210557612104612d5c565b5b600061211384828501611fb9565b91505092915050565b60006020828403121561213257612131612d5c565b5b600082015167ffffffffffffffff8111156121505761214f612d57565b5b61215c84828501611fce565b91505092915050565b60006020828403121561217b5761217a612d5c565b5b600061218984828501611ffc565b91505092915050565b6000602082840312156121a8576121a7612d5c565b5b60006121b684828501612011565b91505092915050565b60006121cb83836121d7565b60208301905092915050565b6121e081612b86565b82525050565b6121ef81612b86565b82525050565b600061220082612a9a565b61220a8185612abd565b935061221583612a8a565b8060005b8381101561224657815161222d88826121bf565b975061223883612ab0565b925050600181019050612219565b5085935050505092915050565b600061225e82612aa5565b6122688185612ace565b9350612278818560208601612c28565b61228181612d61565b840191505092915050565b61229581612bce565b82525050565b6122a481612be0565b82525050565b6122b381612bf2565b82525050565b60006122c6600283612ace565b91506122d182612d72565b602082019050919050565b60006122e9604283612aea565b91506122f482612d9b565b606082019050919050565b600061230c603a83612aea565b915061231782612e10565b604082019050919050565b600061232f601083612aea565b915061233a82612e5f565b602082019050919050565b6000612352601f83612aea565b915061235d82612e88565b602082019050919050565b6000612375601283612aea565b915061238082612eb1565b602082019050919050565b6000612398601083612aea565b91506123a382612eda565b602082019050919050565b60006123bb600c83612aea565b91506123c682612f03565b602082019050919050565b60006123de600f83612aea565b91506123e982612f2c565b602082019050919050565b6000612401602e83612aea565b915061240c82612f55565b604082019050919050565b6000612424601e83612aea565b915061242f82612fa4565b602082019050919050565b6000612447601283612aea565b915061245282612fcd565b602082019050919050565b600061246a600083612adf565b915061247582612ff6565b600082019050919050565b600061248d602283612aea565b915061249882612ff9565b604082019050919050565b60006124b0600e83612aea565b91506124bb82613048565b602082019050919050565b60006124d3601f83612aea565b91506124de82613071565b602082019050919050565b60006124f6601683612aea565b91506125018261309a565b602082019050919050565b6000612519601283612aea565b9150612524826130c3565b602082019050919050565b600061253c601983612aea565b9150612547826130ec565b602082019050919050565b61255b81612bc4565b82525050565b600061256c8261245d565b9150819050919050565b600060408201905061258b60008301856121e6565b61259860208301846121e6565b9392505050565b60006080820190506125b460008301876121e6565b6125c160208301866121e6565b6125ce6040830185612552565b6125db6060830184612552565b95945050505050565b60006040820190506125f960008301856121e6565b61260660208301846122aa565b9392505050565b600060408201905061262260008301856121e6565b61262f6020830184612552565b9392505050565b6000602082019050818103600083015261265081846121f5565b905092915050565b600060608201905061266d600083018561228c565b818103602083015261267f8184612253565b90508181036040830152612692816122b9565b90509392505050565b60006080820190506126b0600083018761229b565b6126bd60208301866121e6565b6126ca60408301856121e6565b81810360608301526126dc8184612253565b905095945050505050565b60006080820190506126fc600083018761229b565b61270960208301866121e6565b6127166040830185612552565b81810360608301526127288184612253565b905095945050505050565b6000602082019050818103600083015261274c816122dc565b9050919050565b6000602082019050818103600083015261276c816122ff565b9050919050565b6000606082019050818103600083015261278c81612322565b905061279b60208301856121e6565b6127a86040830184612552565b9392505050565b600060208201905081810360008301526127c881612345565b9050919050565b600060208201905081810360008301526127e881612368565b9050919050565b600060608201905081810360008301526128088161238b565b905061281760208301856121e6565b6128246040830184612552565b9392505050565b60006060820190508181036000830152612844816123ae565b905061285360208301856121e6565b6128606040830184612552565b9392505050565b60006060820190508181036000830152612880816123d1565b905061288f60208301856121e6565b61289c6040830184612552565b9392505050565b600060208201905081810360008301526128bc816123f4565b9050919050565b600060208201905081810360008301526128dc81612417565b9050919050565b600060208201905081810360008301526128fc8161243a565b9050919050565b6000602082019050818103600083015261291c81612480565b9050919050565b6000606082019050818103600083015261293c816124a3565b905061294b60208301856121e6565b6129586040830184612552565b9392505050565b60006020820190508181036000830152612978816124c6565b9050919050565b60006020820190508181036000830152612998816124e9565b9050919050565b600060208201905081810360008301526129b88161250c565b9050919050565b600060408201905081810360008301526129d88161252f565b90506129e760208301846121e6565b92915050565b6000602082019050612a026000830184612552565b92915050565b6000612a12612a23565b9050612a1e8282612c5b565b919050565b6000604051905090565b600067ffffffffffffffff821115612a4857612a47612d19565b5b602082029050602081019050919050565b600067ffffffffffffffff821115612a7457612a73612d19565b5b612a7d82612d61565b9050602081019050919050565b6000819050602082019050919050565b600081519050919050565b600081519050919050565b6000602082019050919050565b600082825260208201905092915050565b600082825260208201905092915050565b600081905092915050565b600082825260208201905092915050565b6000612b0682612bc4565b9150612b1183612bc4565b925082612b2157612b20612cbb565b5b828204905092915050565b6000612b3782612bc4565b9150612b4283612bc4565b9250817fffffffffffffffffffffffffffffffffffffffffffffffffffffffffffffffff0483118215151615612b7b57612b7a612c8c565b5b828202905092915050565b6000612b9182612ba4565b9050919050565b60008115159050919050565b600073ffffffffffffffffffffffffffffffffffffffff82169050919050565b6000819050919050565b6000612bd982612c04565b9050919050565b6000612beb82612c04565b9050919050565b6000612bfd82612bc4565b9050919050565b6000612c0f82612c16565b9050919050565b6000612c2182612ba4565b9050919050565b60005b83811015612c46578082015181840152602081019050612c2b565b83811115612c55576000848401525b50505050565b612c6482612d61565b810181811067ffffffffffffffff82111715612c8357612c82612d19565b5b80604052505050565b7f4e487b7100000000000000000000000000000000000000000000000000000000600052601160045260246000fd5b7f4e487b7100000000000000000000000000000000000000000000000000000000600052601260045260246000fd5b7f4e487b7100000000000000000000000000000000000000000000000000000000600052603260045260246000fd5b7f4e487b7100000000000000000000000000000000000000000000000000000000600052604160045260246000fd5b600080fd5b600080fd5b600080fd5b600080fd5b600080fd5b6000601f19601f8301169050919050565b7f3078000000000000000000000000000000000000000000000000000000000000600082015250565b7f4552524f523a204261736520636f6e74726163742063616e6e6f74206265206360008201527f616c6c61626c652c20697420697320616c726561647920696e697469616c697a60208201527f6564000000000000000000000000000000000000000000000000000000000000604082015250565b7f4552524f523a204f776e6572206e6f742061646472657373202830292c20436f60008201527f6e747261637420616c726561647920696e697469616c697a6564000000000000602082015250565b7f537570706c6965642042616c616e636500000000000000000000000000000000600082015250565b7f436f6d7074726f6c6c65722e656e7465724d61726b657473206661696c656400600082015250565b7f4e6f7420656e6f7567682062616c616e63650000000000000000000000000000600082015250565b7f426f72726f7765642042616c616e636500000000000000000000000000000000600082015250565b7f5265706179656420446562740000000000000000000000000000000000000000600082015250565b7f5472616e736665726564204261636b0000000000000000000000000000000000600082015250565b7f496e697469616c697a61626c653a20636f6e747261637420697320616c72656160008201527f647920696e697469616c697a6564000000000000000000000000000000000000602082015250565b7f4552524f523a2072656465656d556e6465726c79696e67206661696c65640000600082015250565b7f426f72726f77204e6f7420576f726b696e670000000000000000000000000000600082015250565b50565b7f596f7520617265206e6f7420617574686f72697a65642c206f6e6c79206f776e60008201527f6572000000000000000000000000000000000000000000000000000000000000602082015250565b7f476574204574686572204261636b000000000000000000000000000000000000600082015250565b7f5265656e7472616e637947756172643a207265656e7472616e742063616c6c00600082015250565b7f4572726f7220696e207265706179426f72726f77282900000000000000000000600082015250565b7f5472616e73616374696f6e204661696c65640000000000000000000000000000600082015250565b7f4e6577206372656174696f6e3a20696e697469616c697a656400000000000000600082015250565b61311e81612b86565b811461312957600080fd5b50565b61313581612b98565b811461314057600080fd5b50565b61314c81612bc4565b811461315757600080fd5b5056fea26469706673582212201e3addb711c911d6565a8bb1679eca6507ef9df953bb07664912bc557222607864736f6c63430008070033",
  "linkReferences": {},
  "deployedLinkReferences": {}
}