{
  "_format": "hh-sol-artifact-1",
  "contractName": "StreamRollV1",
  "sourceName": "contracts/StreamRollV1.sol",
  "abi": [
    {
      "inputs": [],
      "stateMutability": "nonpayable",
      "type": "constructor"
    },
    {
      "anonymous": false,
      "inputs": [
        {
          "indexed": false,
          "internalType": "string",
          "name": "_message",
          "type": "string"
        },
        {
          "indexed": false,
          "internalType": "address",
          "name": "_owner",
          "type": "address"
        }
      ],
      "name": "Creation",
      "type": "event"
    },
    {
      "anonymous": false,
      "inputs": [
        {
          "indexed": false,
          "internalType": "string",
          "name": "",
          "type": "string"
        },
        {
          "indexed": false,
          "internalType": "address",
          "name": "",
          "type": "address"
        },
        {
          "indexed": false,
          "internalType": "uint256",
          "name": "",
          "type": "uint256"
        }
      ],
      "name": "Log",
      "type": "event"
    },
    {
      "inputs": [
        {
          "internalType": "uint256",
          "name": "_amount",
          "type": "uint256"
        }
      ],
      "name": "borrowFromCompound",
      "outputs": [],
      "stateMutability": "payable",
      "type": "function"
    },
    {
      "inputs": [
        {
          "internalType": "uint256",
          "name": "_amount",
          "type": "uint256"
        }
      ],
      "name": "getEtherBack",
      "outputs": [],
      "stateMutability": "nonpayable",
      "type": "function"
    },
    {
      "inputs": [
        {
          "internalType": "address",
          "name": "_owner",
          "type": "address"
        }
      ],
      "name": "initialize",
      "outputs": [],
      "stateMutability": "nonpayable",
      "type": "function"
    },
    {
      "inputs": [
        {
          "internalType": "uint256",
          "name": "_repayAmount",
          "type": "uint256"
        }
      ],
      "name": "repayDebt",
      "outputs": [],
      "stateMutability": "nonpayable",
      "type": "function"
    },
    {
      "inputs": [],
      "name": "supplyEthToCompound",
      "outputs": [],
      "stateMutability": "payable",
      "type": "function"
    },
    {
      "stateMutability": "payable",
      "type": "receive"
    }
  ],
  "bytecode": "0x608060405234801561001057600080fd5b50600160008190555060018060026101000a81548160ff021916908315150217905550611e36806100426000396000f3fe60806040526004361061004e5760003560e01c80636b09de451461005a5780636fb9ec5d14610083578063c4d66de8146100ac578063d2cbf04b146100d5578063f5837ada146100f157610055565b3661005557005b600080fd5b34801561006657600080fd5b50610081600480360381019061007c9190611263565b6100fb565b005b34801561008f57600080fd5b506100aa60048036038101906100a59190611263565b6103c8565b005b3480156100b857600080fd5b506100d360048036038101906100ce91906111c0565b6105e2565b005b6100ef60048036038101906100ea9190611263565b610954565b005b6100f9610d8f565b005b60026000541415610141576040517f08c379a00000000000000000000000000000000000000000000000000000000081526004016101389061184d565b60405180910390fd5b60026000819055503373ffffffffffffffffffffffffffffffffffffffff16600160039054906101000a900473ffffffffffffffffffffffffffffffffffffffff1673ffffffffffffffffffffffffffffffffffffffff16146101d9576040517f08c379a00000000000000000000000000000000000000000000000000000000081526004016101d0906117f1565b60405180910390fd5b6000735592ec0cfb4dbc12d3ab100b257153436a1f0fea90508073ffffffffffffffffffffffffffffffffffffffff1663095ea7b3736d7f0754ffeb405d23c51ce938289d4835be3b14846040518363ffffffff1660e01b81526004016102419291906115c8565b602060405180830381600087803b15801561025b57600080fd5b505af115801561026f573d6000803e3d6000fd5b505050506040513d601f19601f820116820180604052508101906102939190611236565b506000600360009054906101000a900473ffffffffffffffffffffffffffffffffffffffff1673ffffffffffffffffffffffffffffffffffffffff16630e752702846040518263ffffffff1660e01b81526004016102f191906118ad565b602060405180830381600087803b15801561030b57600080fd5b505af115801561031f573d6000803e3d6000fd5b505050506040513d601f19601f820116820180604052508101906103439190611290565b14610383576040517f08c379a000000000000000000000000000000000000000000000000000000000815260040161037a9061186d565b60405180910390fd5b7f31f37e75fc861191c989b3f8011596a4c0dd2bd2b255a7072a7d94fdb895a72433836040516103b492919061170b565b60405180910390a150600160008190555050565b6002600054141561040e576040517f08c379a00000000000000000000000000000000000000000000000000000000081526004016104059061184d565b60405180910390fd5b60026000819055503373ffffffffffffffffffffffffffffffffffffffff16600160039054906101000a900473ffffffffffffffffffffffffffffffffffffffff1673ffffffffffffffffffffffffffffffffffffffff16146104a6576040517f08c379a000000000000000000000000000000000000000000000000000000000815260040161049d906117f1565b60405180910390fd5b6000600260009054906101000a900473ffffffffffffffffffffffffffffffffffffffff1673ffffffffffffffffffffffffffffffffffffffff1663852a12e3836040518263ffffffff1660e01b815260040161050391906118ad565b602060405180830381600087803b15801561051d57600080fd5b505af1158015610531573d6000803e3d6000fd5b505050506040513d601f19601f820116820180604052508101906105559190611290565b14610595576040517f08c379a000000000000000000000000000000000000000000000000000000000815260040161058c906116af565b60405180910390fd5b61059e81610f33565b7f31f37e75fc861191c989b3f8011596a4c0dd2bd2b255a7072a7d94fdb895a72433826040516105cf929190611811565b60405180910390a1600160008190555050565b60018054906101000a900460ff16806106085750600160009054906101000a900460ff16155b610647576040517f08c379a000000000000000000000000000000000000000000000000000000000815260040161063e906117b1565b60405180910390fd5b600060018054906101000a900460ff1615905080156106955760018060016101000a81548160ff02191690831515021790555060018060006101000a81548160ff0219169083151502179055505b60001515600160029054906101000a900460ff161515146106eb576040517f08c379a00000000000000000000000000000000000000000000000000000000081526004016106e290611613565b60405180910390fd5b600073ffffffffffffffffffffffffffffffffffffffff16600160039054906101000a900473ffffffffffffffffffffffffffffffffffffffff1673ffffffffffffffffffffffffffffffffffffffff161461077c576040517f08c379a000000000000000000000000000000000000000000000000000000000815260040161077390611633565b60405180910390fd5b73d6801a1dffcd0a410336ef88def4320d6df1883e600260006101000a81548173ffffffffffffffffffffffffffffffffffffffff021916908373ffffffffffffffffffffffffffffffffffffffff160217905550736d7f0754ffeb405d23c51ce938289d4835be3b14600360006101000a81548173ffffffffffffffffffffffffffffffffffffffff021916908373ffffffffffffffffffffffffffffffffffffffff160217905550732eaa9d77ae4d8f9cdd9faacd44016e746485bddb600460006101000a81548173ffffffffffffffffffffffffffffffffffffffff021916908373ffffffffffffffffffffffffffffffffffffffff16021790555081600160036101000a81548173ffffffffffffffffffffffffffffffffffffffff021916908373ffffffffffffffffffffffffffffffffffffffff16021790555060018060026101000a81548160ff0219169083151502179055507fba58a248a34b80c5742c0af3972b0b5f3c99ddd89f684df8802752c534c4de40600160039054906101000a900473ffffffffffffffffffffffffffffffffffffffff166040516109279190611747565b60405180910390a180156109505760006001806101000a81548160ff0219169083151502179055505b5050565b6002600054141561099a576040517f08c379a00000000000000000000000000000000000000000000000000000000081526004016109919061184d565b60405180910390fd5b60026000819055503373ffffffffffffffffffffffffffffffffffffffff16600160039054906101000a900473ffffffffffffffffffffffffffffffffffffffff1673ffffffffffffffffffffffffffffffffffffffff1614610a32576040517f08c379a0000000000000000000000000000000000000000000000000000000008152600401610a29906117f1565b60405180910390fd5b6000600267ffffffffffffffff811115610a4f57610a4e611a16565b5b604051908082528060200260200182016040528015610a7d5781602001602082028036833780820191505090505b50905073d6801a1dffcd0a410336ef88def4320d6df1883e81600081518110610aa957610aa86119e7565b5b602002602001019073ffffffffffffffffffffffffffffffffffffffff16908173ffffffffffffffffffffffffffffffffffffffff1681525050736d7f0754ffeb405d23c51ce938289d4835be3b1481600181518110610b0c57610b0b6119e7565b5b602002602001019073ffffffffffffffffffffffffffffffffffffffff16908173ffffffffffffffffffffffffffffffffffffffff16815250506000600460009054906101000a900473ffffffffffffffffffffffffffffffffffffffff1673ffffffffffffffffffffffffffffffffffffffff1663c2998238836040518263ffffffff1660e01b8152600401610ba391906115f1565b600060405180830381600087803b158015610bbd57600080fd5b505af1158015610bd1573d6000803e3d6000fd5b505050506040513d6000823e3d601f19601f82011682018060405250810190610bfa91906111ed565b9050600081600081518110610c1257610c116119e7565b5b602002602001015114610c5a576040517f08c379a0000000000000000000000000000000000000000000000000000000008152600401610c519061168f565b60405180910390fd5b6000600360009054906101000a900473ffffffffffffffffffffffffffffffffffffffff1673ffffffffffffffffffffffffffffffffffffffff1663c5ebeaec856040518263ffffffff1660e01b8152600401610cb791906118ad565b602060405180830381600087803b158015610cd157600080fd5b505af1158015610ce5573d6000803e3d6000fd5b505050506040513d601f19601f82011682018060405250810190610d099190611290565b14610d49576040517f08c379a0000000000000000000000000000000000000000000000000000000008152600401610d40906117d1565b60405180910390fd5b7f31f37e75fc861191c989b3f8011596a4c0dd2bd2b255a7072a7d94fdb895a7243384604051610d7a9291906116cf565b60405180910390a15050600160008190555050565b60026000541415610dd5576040517f08c379a0000000000000000000000000000000000000000000000000000000008152600401610dcc9061184d565b60405180910390fd5b60026000819055503373ffffffffffffffffffffffffffffffffffffffff16600160039054906101000a900473ffffffffffffffffffffffffffffffffffffffff1673ffffffffffffffffffffffffffffffffffffffff1614610e6d576040517f08c379a0000000000000000000000000000000000000000000000000000000008152600401610e64906117f1565b60405180910390fd5b600260009054906101000a900473ffffffffffffffffffffffffffffffffffffffff1673ffffffffffffffffffffffffffffffffffffffff16631249c58b346040518263ffffffff1660e01b81526004016000604051808303818588803b158015610ed757600080fd5b505af1158015610eeb573d6000803e3d6000fd5b50505050507f31f37e75fc861191c989b3f8011596a4c0dd2bd2b255a7072a7d94fdb895a7243334604051610f21929190611653565b60405180910390a16001600081905550565b3373ffffffffffffffffffffffffffffffffffffffff16600160039054906101000a900473ffffffffffffffffffffffffffffffffffffffff1673ffffffffffffffffffffffffffffffffffffffff1614610fc3576040517f08c379a0000000000000000000000000000000000000000000000000000000008152600401610fba906117f1565b60405180910390fd5b6000600160039054906101000a900473ffffffffffffffffffffffffffffffffffffffff1673ffffffffffffffffffffffffffffffffffffffff168260405161100b906115b3565b60006040518083038185875af1925050503d8060008114611048576040519150601f19603f3d011682016040523d82523d6000602084013e61104d565b606091505b5050905080611091576040517f08c379a00000000000000000000000000000000000000000000000000000000081526004016110889061188d565b60405180910390fd5b7f31f37e75fc861191c989b3f8011596a4c0dd2bd2b255a7072a7d94fdb895a72433836040516110c2929190611775565b60405180910390a15050565b60006110e16110dc846118ed565b6118c8565b9050808382526020820190508285602086028201111561110457611103611a4a565b5b60005b85811015611134578161111a88826111ab565b845260208401935060208301925050600181019050611107565b5050509392505050565b60008135905061114d81611dbb565b92915050565b600082601f83011261116857611167611a45565b5b81516111788482602086016110ce565b91505092915050565b60008151905061119081611dd2565b92915050565b6000813590506111a581611de9565b92915050565b6000815190506111ba81611de9565b92915050565b6000602082840312156111d6576111d5611a54565b5b60006111e48482850161113e565b91505092915050565b60006020828403121561120357611202611a54565b5b600082015167ffffffffffffffff81111561122157611220611a4f565b5b61122d84828501611153565b91505092915050565b60006020828403121561124c5761124b611a54565b5b600061125a84828501611181565b91505092915050565b60006020828403121561127957611278611a54565b5b600061128784828501611196565b91505092915050565b6000602082840312156112a6576112a5611a54565b5b60006112b4848285016111ab565b91505092915050565b60006112c983836112d5565b60208301905092915050565b6112de8161196e565b82525050565b6112ed8161196e565b82525050565b60006112fe82611929565b6113088185611941565b935061131383611919565b8060005b8381101561134457815161132b88826112bd565b975061133683611934565b925050600181019050611317565b5085935050505092915050565b600061135e60428361195d565b915061136982611a6a565b606082019050919050565b6000611381603a8361195d565b915061138c82611adf565b604082019050919050565b60006113a460108361195d565b91506113af82611b2e565b602082019050919050565b60006113c7601f8361195d565b91506113d282611b57565b602082019050919050565b60006113ea60058361195d565b91506113f582611b80565b602082019050919050565b600061140d60108361195d565b915061141882611ba9565b602082019050919050565b6000611430600c8361195d565b915061143b82611bd2565b602082019050919050565b6000611453600c8361195d565b915061145e82611bfb565b602082019050919050565b6000611476600f8361195d565b915061148182611c24565b602082019050919050565b6000611499602e8361195d565b91506114a482611c4d565b604082019050919050565b60006114bc60128361195d565b91506114c782611c9c565b602082019050919050565b60006114df600083611952565b91506114ea82611cc5565b600082019050919050565b600061150260228361195d565b915061150d82611cc8565b604082019050919050565b6000611525600e8361195d565b915061153082611d17565b602082019050919050565b6000611548601f8361195d565b915061155382611d40565b602082019050919050565b600061156b60168361195d565b915061157682611d69565b602082019050919050565b600061158e60128361195d565b915061159982611d92565b602082019050919050565b6115ad816119ac565b82525050565b60006115be826114d2565b9150819050919050565b60006040820190506115dd60008301856112e4565b6115ea60208301846115a4565b9392505050565b6000602082019050818103600083015261160b81846112f3565b905092915050565b6000602082019050818103600083015261162c81611351565b9050919050565b6000602082019050818103600083015261164c81611374565b9050919050565b6000606082019050818103600083015261166c81611397565b905061167b60208301856112e4565b61168860408301846115a4565b9392505050565b600060208201905081810360008301526116a8816113ba565b9050919050565b600060208201905081810360008301526116c8816113dd565b9050919050565b600060608201905081810360008301526116e881611400565b90506116f760208301856112e4565b61170460408301846115a4565b9392505050565b6000606082019050818103600083015261172481611423565b905061173360208301856112e4565b61174060408301846115a4565b9392505050565b6000604082019050818103600083015261176081611446565b905061176f60208301846112e4565b92915050565b6000606082019050818103600083015261178e81611469565b905061179d60208301856112e4565b6117aa60408301846115a4565b9392505050565b600060208201905081810360008301526117ca8161148c565b9050919050565b600060208201905081810360008301526117ea816114af565b9050919050565b6000602082019050818103600083015261180a816114f5565b9050919050565b6000606082019050818103600083015261182a81611518565b905061183960208301856112e4565b61184660408301846115a4565b9392505050565b600060208201905081810360008301526118668161153b565b9050919050565b600060208201905081810360008301526118868161155e565b9050919050565b600060208201905081810360008301526118a681611581565b9050919050565b60006020820190506118c260008301846115a4565b92915050565b60006118d26118e3565b90506118de82826119b6565b919050565b6000604051905090565b600067ffffffffffffffff82111561190857611907611a16565b5b602082029050602081019050919050565b6000819050602082019050919050565b600081519050919050565b6000602082019050919050565b600082825260208201905092915050565b600081905092915050565b600082825260208201905092915050565b60006119798261198c565b9050919050565b60008115159050919050565b600073ffffffffffffffffffffffffffffffffffffffff82169050919050565b6000819050919050565b6119bf82611a59565b810181811067ffffffffffffffff821117156119de576119dd611a16565b5b80604052505050565b7f4e487b7100000000000000000000000000000000000000000000000000000000600052603260045260246000fd5b7f4e487b7100000000000000000000000000000000000000000000000000000000600052604160045260246000fd5b600080fd5b600080fd5b600080fd5b600080fd5b6000601f19601f8301169050919050565b7f4552524f523a204261736520636f6e74726163742063616e6e6f74206265206360008201527f616c6c61626c652c20697420697320616c726561647920696e697469616c697a60208201527f6564000000000000000000000000000000000000000000000000000000000000604082015250565b7f4552524f523a204f776e6572206e6f742061646472657373202830292c20436f60008201527f6e747261637420616c726561647920696e697469616c697a6564000000000000602082015250565b7f537570706c6965642042616c616e636500000000000000000000000000000000600082015250565b7f436f6d7074726f6c6c65722e656e7465724d61726b657473206661696c656400600082015250565b7f4552524f52000000000000000000000000000000000000000000000000000000600082015250565b7f426f72726f7765642042616c616e636500000000000000000000000000000000600082015250565b7f5265706179656420446562740000000000000000000000000000000000000000600082015250565b7f4e6577204372656174696f6e0000000000000000000000000000000000000000600082015250565b7f5472616e736665726564204261636b0000000000000000000000000000000000600082015250565b7f496e697469616c697a61626c653a20636f6e747261637420697320616c72656160008201527f647920696e697469616c697a6564000000000000000000000000000000000000602082015250565b7f426f72726f77204e6f7420576f726b696e670000000000000000000000000000600082015250565b50565b7f596f7520617265206e6f7420617574686f72697a65642c206f6e6c79206f776e60008201527f6572000000000000000000000000000000000000000000000000000000000000602082015250565b7f476574204574686572204261636b000000000000000000000000000000000000600082015250565b7f5265656e7472616e637947756172643a207265656e7472616e742063616c6c00600082015250565b7f4572726f7220696e207265706179426f72726f77282900000000000000000000600082015250565b7f5472616e73616374696f6e204661696c65640000000000000000000000000000600082015250565b611dc48161196e565b8114611dcf57600080fd5b50565b611ddb81611980565b8114611de657600080fd5b50565b611df2816119ac565b8114611dfd57600080fd5b5056fea26469706673582212209583af068a4634279471cb69b7a9fc12c61af9a92a246735de48ac70c7c2b45064736f6c63430008070033",
  "linkReferences": {},
  "deployedLinkReferences": {}
}