{
  "_format": "hh-sol-artifact-1",
  "contractName": "StreamRollV1",
  "sourceName": "contracts/StreamRollV1.sol",
  "abi": [
    {
      "inputs": [],
      "stateMutability": "nonpayable",
      "type": "constructor"
    },
    {
      "anonymous": false,
      "inputs": [
        {
          "indexed": false,
          "internalType": "string",
          "name": "_message",
          "type": "string"
        },
        {
          "indexed": false,
          "internalType": "address",
          "name": "_owner",
          "type": "address"
        }
      ],
      "name": "Creation",
      "type": "event"
    },
    {
      "anonymous": false,
      "inputs": [
        {
          "indexed": false,
          "internalType": "address",
          "name": "_sender",
          "type": "address"
        },
        {
          "indexed": false,
          "internalType": "address",
          "name": "_to",
          "type": "address"
        },
        {
          "indexed": false,
          "internalType": "uint256",
          "name": "_amount",
          "type": "uint256"
        },
        {
          "indexed": false,
          "internalType": "uint256",
          "name": "_days",
          "type": "uint256"
        },
        {
          "indexed": false,
          "internalType": "uint256",
          "name": "_hours",
          "type": "uint256"
        }
      ],
      "name": "FlowDeleted",
      "type": "event"
    },
    {
      "anonymous": false,
      "inputs": [
        {
          "indexed": false,
          "internalType": "address",
          "name": "_sender",
          "type": "address"
        },
        {
          "indexed": false,
          "internalType": "address",
          "name": "_to",
          "type": "address"
        },
        {
          "indexed": false,
          "internalType": "uint256",
          "name": "_amount",
          "type": "uint256"
        },
        {
          "indexed": false,
          "internalType": "uint256",
          "name": "_days",
          "type": "uint256"
        },
        {
          "indexed": false,
          "internalType": "uint256",
          "name": "_hours",
          "type": "uint256"
        }
      ],
      "name": "FlowUpdated",
      "type": "event"
    },
    {
      "anonymous": false,
      "inputs": [
        {
          "indexed": false,
          "internalType": "string",
          "name": "",
          "type": "string"
        },
        {
          "indexed": false,
          "internalType": "address",
          "name": "",
          "type": "address"
        },
        {
          "indexed": false,
          "internalType": "uint256",
          "name": "",
          "type": "uint256"
        }
      ],
      "name": "Log",
      "type": "event"
    },
    {
      "anonymous": false,
      "inputs": [
        {
          "indexed": false,
          "internalType": "address",
          "name": "_sender",
          "type": "address"
        },
        {
          "indexed": false,
          "internalType": "address",
          "name": "_to",
          "type": "address"
        },
        {
          "indexed": false,
          "internalType": "uint256",
          "name": "_amount",
          "type": "uint256"
        },
        {
          "indexed": false,
          "internalType": "uint256",
          "name": "_days",
          "type": "uint256"
        },
        {
          "indexed": false,
          "internalType": "uint256",
          "name": "_hours",
          "type": "uint256"
        }
      ],
      "name": "NewFlow",
      "type": "event"
    },
    {
      "inputs": [
        {
          "internalType": "address",
          "name": "_to",
          "type": "address"
        },
        {
          "internalType": "uint256",
          "name": "_amount",
          "type": "uint256"
        },
        {
          "internalType": "uint256",
          "name": "_days",
          "type": "uint256"
        },
        {
          "internalType": "uint256",
          "name": "_hours",
          "type": "uint256"
        }
      ],
      "name": "_createFlow",
      "outputs": [],
      "stateMutability": "nonpayable",
      "type": "function"
    },
    {
      "inputs": [
        {
          "internalType": "address",
          "name": "_to",
          "type": "address"
        },
        {
          "internalType": "uint256",
          "name": "_amount",
          "type": "uint256"
        },
        {
          "internalType": "uint256",
          "name": "_days",
          "type": "uint256"
        },
        {
          "internalType": "uint256",
          "name": "_hours",
          "type": "uint256"
        }
      ],
      "name": "_deleteFlow",
      "outputs": [],
      "stateMutability": "nonpayable",
      "type": "function"
    },
    {
      "inputs": [
        {
          "internalType": "address",
          "name": "_to",
          "type": "address"
        },
        {
          "internalType": "uint256",
          "name": "_amount",
          "type": "uint256"
        },
        {
          "internalType": "uint256",
          "name": "_days",
          "type": "uint256"
        },
        {
          "internalType": "uint256",
          "name": "_hours",
          "type": "uint256"
        }
      ],
      "name": "_updateFlow",
      "outputs": [],
      "stateMutability": "nonpayable",
      "type": "function"
    },
    {
      "inputs": [
        {
          "internalType": "uint256",
          "name": "_amount",
          "type": "uint256"
        }
      ],
      "name": "borrowFromCompound",
      "outputs": [],
      "stateMutability": "payable",
      "type": "function"
    },
    {
      "inputs": [
        {
          "internalType": "uint256",
          "name": "_amount",
          "type": "uint256"
        }
      ],
      "name": "getEtherBack",
      "outputs": [],
      "stateMutability": "nonpayable",
      "type": "function"
    },
    {
      "inputs": [
        {
          "internalType": "address",
          "name": "_owner",
          "type": "address"
        }
      ],
      "name": "initialize",
      "outputs": [],
      "stateMutability": "nonpayable",
      "type": "function"
    },
    {
      "inputs": [
        {
          "internalType": "uint256",
          "name": "_repayAmount",
          "type": "uint256"
        }
      ],
      "name": "repayDebt",
      "outputs": [],
      "stateMutability": "nonpayable",
      "type": "function"
    },
    {
      "inputs": [],
      "name": "supplyEthToCompound",
      "outputs": [],
      "stateMutability": "payable",
      "type": "function"
    },
    {
      "stateMutability": "payable",
      "type": "receive"
    }
  ],
  "bytecode": "0x608060405234801561001057600080fd5b50600160008190555060018060026101000a81548160ff02191690831515021790555061324b806100426000396000f3fe60806040526004361061007f5760003560e01c8063c4d66de81161004e578063c4d66de81461012f578063c89b270e14610158578063d2cbf04b14610181578063f5837ada1461019d57610086565b806337ab8ce21461008b57806343f4b721146100b45780636b09de45146100dd5780636fb9ec5d1461010657610086565b3661008657005b600080fd5b34801561009757600080fd5b506100b260048036038101906100ad9190612177565b6101a7565b005b3480156100c057600080fd5b506100db60048036038101906100d69190612177565b6105da565b005b3480156100e957600080fd5b5061010460048036038101906100ff919061229d565b610a0d565b005b34801561011257600080fd5b5061012d6004803603810190610128919061229d565b610cda565b005b34801561013b57600080fd5b506101566004803603810190610151919061214a565b610ef4565b005b34801561016457600080fd5b5061017f600480360381019061017a9190612177565b61143b565b005b61019b6004803603810190610196919061229d565b61186e565b005b6101a5611ca9565b005b3373ffffffffffffffffffffffffffffffffffffffff16600160039054906101000a900473ffffffffffffffffffffffffffffffffffffffff1673ffffffffffffffffffffffffffffffffffffffff1614610237576040517f08c379a000000000000000000000000000000000000000000000000000000000815260040161022e90612991565b60405180910390fd5b60008211806102465750600081115b61024f57600080fd5b60006201518090506000610e10905060008085141561029f57600084836102769190612c10565b905080670de0b6b3a76400008861028d9190612c10565b6102979190612bdf565b91505061033f565b60008414156102df57600085846102b69190612c10565b905080670de0b6b3a7640000886102cd9190612c10565b6102d79190612bdf565b91505061033e565b6000851180156102ef5750600084115b1561033d57600084836103029190612c10565b868561030e9190612c10565b6103189190612b89565b905080670de0b6b3a76400008861032f9190612c10565b6103399190612bdf565b9150505b5b5b73745861aed1eee363b4aaa5f1994be40b1e05ff9073ffffffffffffffffffffffffffffffffffffffff166345977d03670de0b6b3a7640000886103839190612c10565b6040518263ffffffff1660e01b815260040161039f9190612a7b565b600060405180830381600087803b1580156103b957600080fd5b505af11580156103cd573d6000803e3d6000fd5b50505050600560009054906101000a900473ffffffffffffffffffffffffffffffffffffffff1673ffffffffffffffffffffffffffffffffffffffff166339255d5b600660009054906101000a900473ffffffffffffffffffffffffffffffffffffffff166362fc305e60e01b600760009054906101000a900473ffffffffffffffffffffffffffffffffffffffff168b86600067ffffffffffffffff81111561047a57610479612dfd565b5b6040519080825280601f01601f1916602001820160405280156104ac5781602001600182028036833780820191505090505b506040516024016104c09493929190612795565b604051602081830303815290604052907bffffffffffffffffffffffffffffffffffffffffffffffffffffffff19166020820180517bffffffffffffffffffffffffffffffffffffffffffffffffffffffff83818316178352505050506040518363ffffffff1660e01b815260040161053a929190612752565b600060405180830381600087803b15801561055457600080fd5b505af1158015610568573d6000803e3d6000fd5b505050506040513d6000823e3d601f19601f820116820180604052508101906105919190612254565b507ff8d0274971b45b5db04708e716b0b3545c77bae137a0d21a1f4508d3a7e4d17e33888888886040516105c995949392919061268b565b60405180910390a150505050505050565b3373ffffffffffffffffffffffffffffffffffffffff16600160039054906101000a900473ffffffffffffffffffffffffffffffffffffffff1673ffffffffffffffffffffffffffffffffffffffff161461066a576040517f08c379a000000000000000000000000000000000000000000000000000000000815260040161066190612991565b60405180910390fd5b60008211806106795750600081115b61068257600080fd5b60006201518090506000610e1090506000808514156106d257600084836106a99190612c10565b905080670de0b6b3a7640000886106c09190612c10565b6106ca9190612bdf565b915050610772565b600084141561071257600085846106e99190612c10565b905080670de0b6b3a7640000886107009190612c10565b61070a9190612bdf565b915050610771565b6000851180156107225750600084115b1561077057600084836107359190612c10565b86856107419190612c10565b61074b9190612b89565b905080670de0b6b3a7640000886107629190612c10565b61076c9190612bdf565b9150505b5b5b73745861aed1eee363b4aaa5f1994be40b1e05ff9073ffffffffffffffffffffffffffffffffffffffff166345977d03670de0b6b3a7640000886107b69190612c10565b6040518263ffffffff1660e01b81526004016107d29190612a7b565b600060405180830381600087803b1580156107ec57600080fd5b505af1158015610800573d6000803e3d6000fd5b50505050600560009054906101000a900473ffffffffffffffffffffffffffffffffffffffff1673ffffffffffffffffffffffffffffffffffffffff166339255d5b600660009054906101000a900473ffffffffffffffffffffffffffffffffffffffff166350209a6260e01b600760009054906101000a900473ffffffffffffffffffffffffffffffffffffffff168b86600067ffffffffffffffff8111156108ad576108ac612dfd565b5b6040519080825280601f01601f1916602001820160405280156108df5781602001600182028036833780820191505090505b506040516024016108f39493929190612795565b604051602081830303815290604052907bffffffffffffffffffffffffffffffffffffffffffffffffffffffff19166020820180517bffffffffffffffffffffffffffffffffffffffffffffffffffffffff83818316178352505050506040518363ffffffff1660e01b815260040161096d929190612752565b600060405180830381600087803b15801561098757600080fd5b505af115801561099b573d6000803e3d6000fd5b505050506040513d6000823e3d601f19601f820116820180604052508101906109c49190612254565b507f6dac9d94b48834baa8e9c9736d909d87ffe87281d0f87f6d07b2748ff28ea13133888888886040516109fc95949392919061268b565b60405180910390a150505050505050565b60026000541415610a53576040517f08c379a0000000000000000000000000000000000000000000000000000000008152600401610a4a906129ed565b60405180910390fd5b60026000819055503373ffffffffffffffffffffffffffffffffffffffff16600160039054906101000a900473ffffffffffffffffffffffffffffffffffffffff1673ffffffffffffffffffffffffffffffffffffffff1614610aeb576040517f08c379a0000000000000000000000000000000000000000000000000000000008152600401610ae290612991565b60405180910390fd5b6000735592ec0cfb4dbc12d3ab100b257153436a1f0fea90508073ffffffffffffffffffffffffffffffffffffffff1663095ea7b3736d7f0754ffeb405d23c51ce938289d4835be3b14846040518363ffffffff1660e01b8152600401610b53929190612707565b602060405180830381600087803b158015610b6d57600080fd5b505af1158015610b81573d6000803e3d6000fd5b505050506040513d601f19601f82011682018060405250810190610ba59190612227565b506000600360009054906101000a900473ffffffffffffffffffffffffffffffffffffffff1673ffffffffffffffffffffffffffffffffffffffff16630e752702846040518263ffffffff1660e01b8152600401610c039190612a7b565b602060405180830381600087803b158015610c1d57600080fd5b505af1158015610c31573d6000803e3d6000fd5b505050506040513d601f19601f82011682018060405250810190610c5591906122ca565b14610c95576040517f08c379a0000000000000000000000000000000000000000000000000000000008152600401610c8c90612a0d565b60405180910390fd5b7f31f37e75fc861191c989b3f8011596a4c0dd2bd2b255a7072a7d94fdb895a7243383604051610cc69291906128b9565b60405180910390a150600160008190555050565b60026000541415610d20576040517f08c379a0000000000000000000000000000000000000000000000000000000008152600401610d17906129ed565b60405180910390fd5b60026000819055503373ffffffffffffffffffffffffffffffffffffffff16600160039054906101000a900473ffffffffffffffffffffffffffffffffffffffff1673ffffffffffffffffffffffffffffffffffffffff1614610db8576040517f08c379a0000000000000000000000000000000000000000000000000000000008152600401610daf90612991565b60405180910390fd5b6000600260009054906101000a900473ffffffffffffffffffffffffffffffffffffffff1673ffffffffffffffffffffffffffffffffffffffff1663852a12e3836040518263ffffffff1660e01b8152600401610e159190612a7b565b602060405180830381600087803b158015610e2f57600080fd5b505af1158015610e43573d6000803e3d6000fd5b505050506040513d601f19601f82011682018060405250810190610e6791906122ca565b14610ea7576040517f08c379a0000000000000000000000000000000000000000000000000000000008152600401610e9e90612951565b60405180910390fd5b610eb081611e4d565b7f31f37e75fc861191c989b3f8011596a4c0dd2bd2b255a7072a7d94fdb895a7243382604051610ee19291906129b1565b60405180910390a1600160008190555050565b60018054906101000a900460ff1680610f1a5750600160009054906101000a900460ff16155b610f59576040517f08c379a0000000000000000000000000000000000000000000000000000000008152600401610f5090612931565b60405180910390fd5b600060018054906101000a900460ff161590508015610fa75760018060016101000a81548160ff02191690831515021790555060018060006101000a81548160ff0219169083151502179055505b60001515600160029054906101000a900460ff16151514610ffd576040517f08c379a0000000000000000000000000000000000000000000000000000000008152600401610ff4906127e1565b60405180910390fd5b600073ffffffffffffffffffffffffffffffffffffffff16600160039054906101000a900473ffffffffffffffffffffffffffffffffffffffff1673ffffffffffffffffffffffffffffffffffffffff161461108e576040517f08c379a000000000000000000000000000000000000000000000000000000000815260040161108590612801565b60405180910390fd5b81600160036101000a81548173ffffffffffffffffffffffffffffffffffffffff021916908373ffffffffffffffffffffffffffffffffffffffff16021790555060018060026101000a81548160ff02191690831515021790555073d6801a1dffcd0a410336ef88def4320d6df1883e600260006101000a81548173ffffffffffffffffffffffffffffffffffffffff021916908373ffffffffffffffffffffffffffffffffffffffff160217905550736d7f0754ffeb405d23c51ce938289d4835be3b14600360006101000a81548173ffffffffffffffffffffffffffffffffffffffff021916908373ffffffffffffffffffffffffffffffffffffffff160217905550732eaa9d77ae4d8f9cdd9faacd44016e746485bddb600460006101000a81548173ffffffffffffffffffffffffffffffffffffffff021916908373ffffffffffffffffffffffffffffffffffffffff16021790555073ed5b5b32110c3ded02a07c8b8e97513fafb883b6600560006101000a81548173ffffffffffffffffffffffffffffffffffffffff021916908373ffffffffffffffffffffffffffffffffffffffff16021790555073f4c5310e51f6079f601a5fb7120bc72a70b96e2a600660006101000a81548173ffffffffffffffffffffffffffffffffffffffff021916908373ffffffffffffffffffffffffffffffffffffffff16021790555073745861aed1eee363b4aaa5f1994be40b1e05ff90600760006101000a81548173ffffffffffffffffffffffffffffffffffffffff021916908373ffffffffffffffffffffffffffffffffffffffff1602179055507315f0ca26781c3852f8166ed2ebce5d18265cceb773ffffffffffffffffffffffffffffffffffffffff1663095ea7b373745861aed1eee363b4aaa5f1994be40b1e05ff907fffffffffffffffffffffffffffffffffffffffffffffffffffffffffffffffff6040518363ffffffff1660e01b815260040161136a9291906126de565b602060405180830381600087803b15801561138457600080fd5b505af1158015611398573d6000803e3d6000fd5b505050506040513d601f19601f820116820180604052508101906113bc9190612227565b507fba58a248a34b80c5742c0af3972b0b5f3c99ddd89f684df8802752c534c4de40600160039054906101000a900473ffffffffffffffffffffffffffffffffffffffff1660405161140e9190612a4d565b60405180910390a180156114375760006001806101000a81548160ff0219169083151502179055505b5050565b3373ffffffffffffffffffffffffffffffffffffffff16600160039054906101000a900473ffffffffffffffffffffffffffffffffffffffff1673ffffffffffffffffffffffffffffffffffffffff16146114cb576040517f08c379a00000000000000000000000000000000000000000000000000000000081526004016114c290612991565b60405180910390fd5b60008211806114da5750600081115b6114e357600080fd5b60006201518090506000610e109050600080851415611533576000848361150a9190612c10565b905080670de0b6b3a7640000886115219190612c10565b61152b9190612bdf565b9150506115d3565b6000841415611573576000858461154a9190612c10565b905080670de0b6b3a7640000886115619190612c10565b61156b9190612bdf565b9150506115d2565b6000851180156115835750600084115b156115d157600084836115969190612c10565b86856115a29190612c10565b6115ac9190612b89565b905080670de0b6b3a7640000886115c39190612c10565b6115cd9190612bdf565b9150505b5b5b73745861aed1eee363b4aaa5f1994be40b1e05ff9073ffffffffffffffffffffffffffffffffffffffff166345977d03670de0b6b3a7640000886116179190612c10565b6040518263ffffffff1660e01b81526004016116339190612a7b565b600060405180830381600087803b15801561164d57600080fd5b505af1158015611661573d6000803e3d6000fd5b50505050600560009054906101000a900473ffffffffffffffffffffffffffffffffffffffff1673ffffffffffffffffffffffffffffffffffffffff166339255d5b600660009054906101000a900473ffffffffffffffffffffffffffffffffffffffff1663b4b333c660e01b600760009054906101000a900473ffffffffffffffffffffffffffffffffffffffff168b86600067ffffffffffffffff81111561170e5761170d612dfd565b5b6040519080825280601f01601f1916602001820160405280156117405781602001600182028036833780820191505090505b506040516024016117549493929190612795565b604051602081830303815290604052907bffffffffffffffffffffffffffffffffffffffffffffffffffffffff19166020820180517bffffffffffffffffffffffffffffffffffffffffffffffffffffffff83818316178352505050506040518363ffffffff1660e01b81526004016117ce929190612752565b600060405180830381600087803b1580156117e857600080fd5b505af11580156117fc573d6000803e3d6000fd5b505050506040513d6000823e3d601f19601f820116820180604052508101906118259190612254565b507f3946de2fd2bbbbedc95d48206329e3cf5f51159656ea6b3ff4ee3e775552cbfb338888888860405161185d95949392919061268b565b60405180910390a150505050505050565b600260005414156118b4576040517f08c379a00000000000000000000000000000000000000000000000000000000081526004016118ab906129ed565b60405180910390fd5b60026000819055503373ffffffffffffffffffffffffffffffffffffffff16600160039054906101000a900473ffffffffffffffffffffffffffffffffffffffff1673ffffffffffffffffffffffffffffffffffffffff161461194c576040517f08c379a000000000000000000000000000000000000000000000000000000000815260040161194390612991565b60405180910390fd5b6000600267ffffffffffffffff81111561196957611968612dfd565b5b6040519080825280602002602001820160405280156119975781602001602082028036833780820191505090505b50905073d6801a1dffcd0a410336ef88def4320d6df1883e816000815181106119c3576119c2612dce565b5b602002602001019073ffffffffffffffffffffffffffffffffffffffff16908173ffffffffffffffffffffffffffffffffffffffff1681525050736d7f0754ffeb405d23c51ce938289d4835be3b1481600181518110611a2657611a25612dce565b5b602002602001019073ffffffffffffffffffffffffffffffffffffffff16908173ffffffffffffffffffffffffffffffffffffffff16815250506000600460009054906101000a900473ffffffffffffffffffffffffffffffffffffffff1673ffffffffffffffffffffffffffffffffffffffff1663c2998238836040518263ffffffff1660e01b8152600401611abd9190612730565b600060405180830381600087803b158015611ad757600080fd5b505af1158015611aeb573d6000803e3d6000fd5b505050506040513d6000823e3d601f19601f82011682018060405250810190611b1491906121de565b9050600081600081518110611b2c57611b2b612dce565b5b602002602001015114611b74576040517f08c379a0000000000000000000000000000000000000000000000000000000008152600401611b6b9061285d565b60405180910390fd5b6000600360009054906101000a900473ffffffffffffffffffffffffffffffffffffffff1673ffffffffffffffffffffffffffffffffffffffff1663c5ebeaec856040518263ffffffff1660e01b8152600401611bd19190612a7b565b602060405180830381600087803b158015611beb57600080fd5b505af1158015611bff573d6000803e3d6000fd5b505050506040513d601f19601f82011682018060405250810190611c2391906122ca565b14611c63576040517f08c379a0000000000000000000000000000000000000000000000000000000008152600401611c5a90612971565b60405180910390fd5b7f31f37e75fc861191c989b3f8011596a4c0dd2bd2b255a7072a7d94fdb895a7243384604051611c9492919061287d565b60405180910390a15050600160008190555050565b60026000541415611cef576040517f08c379a0000000000000000000000000000000000000000000000000000000008152600401611ce6906129ed565b60405180910390fd5b60026000819055503373ffffffffffffffffffffffffffffffffffffffff16600160039054906101000a900473ffffffffffffffffffffffffffffffffffffffff1673ffffffffffffffffffffffffffffffffffffffff1614611d87576040517f08c379a0000000000000000000000000000000000000000000000000000000008152600401611d7e90612991565b60405180910390fd5b600260009054906101000a900473ffffffffffffffffffffffffffffffffffffffff1673ffffffffffffffffffffffffffffffffffffffff16631249c58b346040518263ffffffff1660e01b81526004016000604051808303818588803b158015611df157600080fd5b505af1158015611e05573d6000803e3d6000fd5b50505050507f31f37e75fc861191c989b3f8011596a4c0dd2bd2b255a7072a7d94fdb895a7243334604051611e3b929190612821565b60405180910390a16001600081905550565b3373ffffffffffffffffffffffffffffffffffffffff16600160039054906101000a900473ffffffffffffffffffffffffffffffffffffffff1673ffffffffffffffffffffffffffffffffffffffff1614611edd576040517f08c379a0000000000000000000000000000000000000000000000000000000008152600401611ed490612991565b60405180910390fd5b6000600160039054906101000a900473ffffffffffffffffffffffffffffffffffffffff1673ffffffffffffffffffffffffffffffffffffffff1682604051611f2590612676565b60006040518083038185875af1925050503d8060008114611f62576040519150601f19603f3d011682016040523d82523d6000602084013e611f67565b606091505b5050905080611fab576040517f08c379a0000000000000000000000000000000000000000000000000000000008152600401611fa290612a2d565b60405180910390fd5b7f31f37e75fc861191c989b3f8011596a4c0dd2bd2b255a7072a7d94fdb895a7243383604051611fdc9291906128f5565b60405180910390a15050565b6000611ffb611ff684612abb565b612a96565b9050808382526020820190508285602086028201111561201e5761201d612e31565b5b60005b8581101561204e57816120348882612135565b845260208401935060208301925050600181019050612021565b5050509392505050565b600061206b61206684612ae7565b612a96565b90508281526020810184848401111561208757612086612e36565b5b612092848285612d0c565b509392505050565b6000813590506120a9816131d0565b92915050565b600082601f8301126120c4576120c3612e2c565b5b81516120d4848260208601611fe8565b91505092915050565b6000815190506120ec816131e7565b92915050565b600082601f83011261210757612106612e2c565b5b8151612117848260208601612058565b91505092915050565b60008135905061212f816131fe565b92915050565b600081519050612144816131fe565b92915050565b6000602082840312156121605761215f612e40565b5b600061216e8482850161209a565b91505092915050565b6000806000806080858703121561219157612190612e40565b5b600061219f8782880161209a565b94505060206121b087828801612120565b93505060406121c187828801612120565b92505060606121d287828801612120565b91505092959194509250565b6000602082840312156121f4576121f3612e40565b5b600082015167ffffffffffffffff81111561221257612211612e3b565b5b61221e848285016120af565b91505092915050565b60006020828403121561223d5761223c612e40565b5b600061224b848285016120dd565b91505092915050565b60006020828403121561226a57612269612e40565b5b600082015167ffffffffffffffff81111561228857612287612e3b565b5b612294848285016120f2565b91505092915050565b6000602082840312156122b3576122b2612e40565b5b60006122c184828501612120565b91505092915050565b6000602082840312156122e0576122df612e40565b5b60006122ee84828501612135565b91505092915050565b6000612303838361230f565b60208301905092915050565b61231881612c6a565b82525050565b61232781612c6a565b82525050565b600061233882612b28565b6123428185612b4b565b935061234d83612b18565b8060005b8381101561237e57815161236588826122f7565b975061237083612b3e565b925050600181019050612351565b5085935050505092915050565b600061239682612b33565b6123a08185612b5c565b93506123b0818560208601612d0c565b6123b981612e45565b840191505092915050565b6123cd81612cb2565b82525050565b6123dc81612cc4565b82525050565b6123eb81612cd6565b82525050565b60006123fe600283612b5c565b915061240982612e56565b602082019050919050565b6000612421604283612b78565b915061242c82612e7f565b606082019050919050565b6000612444603a83612b78565b915061244f82612ef4565b604082019050919050565b6000612467601083612b78565b915061247282612f43565b602082019050919050565b600061248a601f83612b78565b915061249582612f6c565b602082019050919050565b60006124ad601083612b78565b91506124b882612f95565b602082019050919050565b60006124d0600c83612b78565b91506124db82612fbe565b602082019050919050565b60006124f3600f83612b78565b91506124fe82612fe7565b602082019050919050565b6000612516602e83612b78565b915061252182613010565b604082019050919050565b6000612539601e83612b78565b91506125448261305f565b602082019050919050565b600061255c601283612b78565b915061256782613088565b602082019050919050565b600061257f600083612b6d565b915061258a826130b1565b600082019050919050565b60006125a2602283612b78565b91506125ad826130b4565b604082019050919050565b60006125c5600e83612b78565b91506125d082613103565b602082019050919050565b60006125e8601f83612b78565b91506125f38261312c565b602082019050919050565b600061260b601683612b78565b915061261682613155565b602082019050919050565b600061262e601283612b78565b91506126398261317e565b602082019050919050565b6000612651601983612b78565b915061265c826131a7565b602082019050919050565b61267081612ca8565b82525050565b600061268182612572565b9150819050919050565b600060a0820190506126a0600083018861231e565b6126ad602083018761231e565b6126ba6040830186612667565b6126c76060830185612667565b6126d46080830184612667565b9695505050505050565b60006040820190506126f3600083018561231e565b61270060208301846123e2565b9392505050565b600060408201905061271c600083018561231e565b6127296020830184612667565b9392505050565b6000602082019050818103600083015261274a818461232d565b905092915050565b600060608201905061276760008301856123c4565b8181036020830152612779818461238b565b9050818103604083015261278c816123f1565b90509392505050565b60006080820190506127aa60008301876123d3565b6127b7602083018661231e565b6127c46040830185612667565b81810360608301526127d6818461238b565b905095945050505050565b600060208201905081810360008301526127fa81612414565b9050919050565b6000602082019050818103600083015261281a81612437565b9050919050565b6000606082019050818103600083015261283a8161245a565b9050612849602083018561231e565b6128566040830184612667565b9392505050565b600060208201905081810360008301526128768161247d565b9050919050565b60006060820190508181036000830152612896816124a0565b90506128a5602083018561231e565b6128b26040830184612667565b9392505050565b600060608201905081810360008301526128d2816124c3565b90506128e1602083018561231e565b6128ee6040830184612667565b9392505050565b6000606082019050818103600083015261290e816124e6565b905061291d602083018561231e565b61292a6040830184612667565b9392505050565b6000602082019050818103600083015261294a81612509565b9050919050565b6000602082019050818103600083015261296a8161252c565b9050919050565b6000602082019050818103600083015261298a8161254f565b9050919050565b600060208201905081810360008301526129aa81612595565b9050919050565b600060608201905081810360008301526129ca816125b8565b90506129d9602083018561231e565b6129e66040830184612667565b9392505050565b60006020820190508181036000830152612a06816125db565b9050919050565b60006020820190508181036000830152612a26816125fe565b9050919050565b60006020820190508181036000830152612a4681612621565b9050919050565b60006040820190508181036000830152612a6681612644565b9050612a75602083018461231e565b92915050565b6000602082019050612a906000830184612667565b92915050565b6000612aa0612ab1565b9050612aac8282612d3f565b919050565b6000604051905090565b600067ffffffffffffffff821115612ad657612ad5612dfd565b5b602082029050602081019050919050565b600067ffffffffffffffff821115612b0257612b01612dfd565b5b612b0b82612e45565b9050602081019050919050565b6000819050602082019050919050565b600081519050919050565b600081519050919050565b6000602082019050919050565b600082825260208201905092915050565b600082825260208201905092915050565b600081905092915050565b600082825260208201905092915050565b6000612b9482612ca8565b9150612b9f83612ca8565b9250827fffffffffffffffffffffffffffffffffffffffffffffffffffffffffffffffff03821115612bd457612bd3612d70565b5b828201905092915050565b6000612bea82612ca8565b9150612bf583612ca8565b925082612c0557612c04612d9f565b5b828204905092915050565b6000612c1b82612ca8565b9150612c2683612ca8565b9250817fffffffffffffffffffffffffffffffffffffffffffffffffffffffffffffffff0483118215151615612c5f57612c5e612d70565b5b828202905092915050565b6000612c7582612c88565b9050919050565b60008115159050919050565b600073ffffffffffffffffffffffffffffffffffffffff82169050919050565b6000819050919050565b6000612cbd82612ce8565b9050919050565b6000612ccf82612ce8565b9050919050565b6000612ce182612ca8565b9050919050565b6000612cf382612cfa565b9050919050565b6000612d0582612c88565b9050919050565b60005b83811015612d2a578082015181840152602081019050612d0f565b83811115612d39576000848401525b50505050565b612d4882612e45565b810181811067ffffffffffffffff82111715612d6757612d66612dfd565b5b80604052505050565b7f4e487b7100000000000000000000000000000000000000000000000000000000600052601160045260246000fd5b7f4e487b7100000000000000000000000000000000000000000000000000000000600052601260045260246000fd5b7f4e487b7100000000000000000000000000000000000000000000000000000000600052603260045260246000fd5b7f4e487b7100000000000000000000000000000000000000000000000000000000600052604160045260246000fd5b600080fd5b600080fd5b600080fd5b600080fd5b600080fd5b6000601f19601f8301169050919050565b7f3078000000000000000000000000000000000000000000000000000000000000600082015250565b7f4552524f523a204261736520636f6e74726163742063616e6e6f74206265206360008201527f616c6c61626c652c20697420697320616c726561647920696e697469616c697a60208201527f6564000000000000000000000000000000000000000000000000000000000000604082015250565b7f4552524f523a204f776e6572206e6f742061646472657373202830292c20436f60008201527f6e747261637420616c726561647920696e697469616c697a6564000000000000602082015250565b7f537570706c6965642042616c616e636500000000000000000000000000000000600082015250565b7f436f6d7074726f6c6c65722e656e7465724d61726b657473206661696c656400600082015250565b7f426f72726f7765642042616c616e636500000000000000000000000000000000600082015250565b7f5265706179656420446562740000000000000000000000000000000000000000600082015250565b7f5472616e736665726564204261636b0000000000000000000000000000000000600082015250565b7f496e697469616c697a61626c653a20636f6e747261637420697320616c72656160008201527f647920696e697469616c697a6564000000000000000000000000000000000000602082015250565b7f4552524f523a2072656465656d556e6465726c79696e67206661696c65640000600082015250565b7f426f72726f77204e6f7420576f726b696e670000000000000000000000000000600082015250565b50565b7f596f7520617265206e6f7420617574686f72697a65642c206f6e6c79206f776e60008201527f6572000000000000000000000000000000000000000000000000000000000000602082015250565b7f476574204574686572204261636b000000000000000000000000000000000000600082015250565b7f5265656e7472616e637947756172643a207265656e7472616e742063616c6c00600082015250565b7f4572726f7220696e207265706179426f72726f77282900000000000000000000600082015250565b7f5472616e73616374696f6e204661696c65640000000000000000000000000000600082015250565b7f4e6577206372656174696f6e3a20696e697469616c697a656400000000000000600082015250565b6131d981612c6a565b81146131e457600080fd5b50565b6131f081612c7c565b81146131fb57600080fd5b50565b61320781612ca8565b811461321257600080fd5b5056fea264697066735822122003d4edadc36908d2c8d03db67b0b23ed1d9a0b117f062080852f6318a61f8e3264736f6c63430008070033",
  "linkReferences": {},
  "deployedLinkReferences": {}
}